C20170726000                                                                                                                                                                             
D2017072500100100000100315001851405              A20170725 UF000000000,28            1002            69194141  S70EJE   170934784            000C09 EJE001                 KAREN CONDOREP00000000              NO                                                                                                                                                                                                                                                               060162
D2017072500100100000100315501851404              A20170707 UF000000000,28            1002            69185207STALUEJE   217277841            000C09 EJE001MACARENA ALEJANDRA MATONS SALIP00000000              NO                                                                                                                                                                                                                                                               079170
D2017072508100100000100321001865467              B20170724 UF000000000,18            1002         62192348108INBEFIBF          19            000C09 IBF081               INTERNET BANEFEQ00000000              NO                                                                                                                                                                                                                                                               085174
D2017072503400100000100321101865468              A20170724 UF000000000,20            1005    5404771021043093INBCOINB          19            000C09 INB034                INTERNET BANCOT00000000              NO                                                                                                                                                                                                                                                               070170
D2017072503400100000100321101865477              A20170724 UF000000000,20            1005    5404771021043093INBCOINB          19            000C09 INB034                INTERNET BANCOT00000000              NO                                                                                                                                                                                                                                                               070170
D2017072503400100000100322101865471              A20170724 UF000000000,51            1002             4182561INBCOINB          19            000C09 INB034                INTERNET BANCOP00000000              NO                                                                                                                                                                                                                                                               070170
D2017072503400100000100322101865474              B20170724 UF000000000,22            1002            65736551INBCOINB          19            000C03 INB034                INTERNET BANCOP00000000              NO                                                                                                                                                                                                                                                               070170
D2017072503400100000100322201865462              Ñ20170724 UF000000003,44            5002          8211001608INBCOINB          19            000C09 INB034                INTERNET BANCOP20170901K             NO                                                                                                                                                                                                                                                               070170
D2017072503400100000100322201865463              A20170724 UF000000000,88            5002            62919701INBCOINB          19            000C09 INB034                INTERNET BANCOP20170801K             NO                                                                                                                                                                                                                                                               070170
D2017072503400100000100322201865464              A20170724 UF000000000,88            5002            62919701INBCOINB          19            000C09 INB034                INTERNET BANCOP20170801K             NO                                                                                                                                                                                                                                                               070170
D2017072503400100000100322201865465              A20170724 UF000000000,88            5002            62919701INBCOINB          19            000C09 INB034                INTERNET BANCOP20170801K             NO                                                                                                                                                                                                                                                               070170
D2017072503400100000100322201865466              B20170724 UF000000001,08            5002            66873498INBCOINB          19            000C09 INB034                INTERNET BANCOP20170730K             NO                                                                                                                                                                                                                                                               070170
D2017072503400100000100322201865478              K20170725 UF000000001,80            5002            70414406INBCOINB          19            000C09 INB034                INTERNET BANCOP20170903K             NO                                                                                                                                                                                                                                                               070170
D2017072503400100000100322201865479              A20170725 UF000000000,88            5002            67768370INBCOINB          19            000C09 INB034                INTERNET BANCOP20170728K             NO                                                                                                                                                                                                                                                               070170
D2017072503400100000100322201865480              Ñ20170725 UF000000003,44            5002            13040605INBCOINB          19            000C09 INB034                INTERNET BANCOP20170730K             NO                                                                                                                                                                                                                                                               070170
D2017072503400100000100322201865481              P20170725 UF000000004,05            5002            54035101INBCOINB          19            000C09 INB034                INTERNET BANCOP20170726K             NO                                                                                                                                                                                                                                                               070170
D2017072503400100000100322201865482              B20170725 UF000000001,08            5002            54035101INBCOINB          19            000C09 INB034                INTERNET BANCOP20170726K             NO                                                                                                                                                                                                                                                               070170
D2017072503400100000100322201865483              L20170725 UF000000002,00            5002             6641563INBCOINB          19            000C09 INB034                INTERNET BANCOP20170801K             NO                                                                                                                                                                                                                                                               070170
D2017072503400100000100322201865484              L20170725 UF000000002,00            5002            68095778INBCOINB          19            000C09 INB034                INTERNET BANCOP20170806K             NO                                                                                                                                                                                                                                                               070170
D2017072503400100000100322201865485              K20170725 UF000000001,80            5002            69216188INBCOINB          19            000C09 INB034                INTERNET BANCOP20170729K             NO                                                                                                                                                                                                                                                               070170
D2017072503400100000100322201865486              K20170725 UF000000001,80            5002            67233743INBCOINB          19            000C09 INB034                INTERNET BANCOP20170728K             NO                                                                                                                                                                                                                                                               070170
D2017072503400100000100322201865487              D20170725 UF000000001,08            5002            71541444INBCOINB          19            000C09 INB034                INTERNET BANCOP20170730K             NO                                                                                                                                                                                                                                                               070170
D2017072503400100000100322201865488              C20170725 UF000000001,79            5002            32151523INBCOINB          19            000C09 INB034                INTERNET BANCOP20170802K             NO                                                                                                                                                                                                                                                               070170
D2017072503400100000100322201865489              A20170725 UF000000000,88            5005    5218921004732164INBCOINB          19            000C09 INB034                INTERNET BANCOT20170804K             NO                                                                                                                                                                                                                                                               070170
D2017072503400100000100322201865490              A20170725 UF000000000,88            5005    5218921004732164INBCOINB          19            000C09 INB034                INTERNET BANCOT20170804K             NO                                                                                                                                                                                                                                                               070170
D2017072503400100000100322201865492              B20170725 UF000000001,08            5002             4872673INBCOINB          19            000C09 INB034                INTERNET BANCOP20170802K             NO                                                                                                                                                                                                                                                               070170
D2017072503400100000100323701865473              A20170724 UF000000001,82            1002             6680526INBCOINB          19            000C09 INB034                INTERNET BANCOP00000000              NO                                                                                                                                                                                                                                                               070170
D2017072500100100000100324001851403              B20170725 UF000000001,25            1002            70749130 S495EJE   106513740            000C09 EJE001NATALIA MARLEN ROJAS ASTUDILLOP00000000              NO                                                                                                                                                                                                                                                               063164
D2017072503400100000100324101865472              A20170724 UF000000000,84            1002              233838INBCOINB          19            000C02 INB034                INTERNET BANCOP00000000              NO                                                                                                                                                                                                                                                               058158
D2017072517600100000100325840779207              A20170721 UF000000000,45            1002             6657184MAPCIMAP          19            000C03 MAP176         TELEMARKETING MAPCITYP00000000N                                                                                                                                                                                                                                                                              000000
D2017072517600100000100325840779208              A20170714 UF000000000,45            1002            67548353MAPCIMAP          19            000C09 MAP176         TELEMARKETING MAPCITYP00000000N                                                                                                                                                                                                                                                                              000000
D2017072517600100000100325840779209              A20170721 UF000000000,45            1002            26055490MAPCIMAP          19            000C03 MAP176         TELEMARKETING MAPCITYP00000000N                                                                                                                                                                                                                                                                              000000
D2017072517600100000100325840779213              A20170710 UF000000000,45            1005    5218921004574871MAPCIMAP          19            000C02 MAP176         TELEMARKETING MAPCITYT00000000N                                                                                                                                                                                                                                                                              000000
D2017072517600100000100325840779214              A20170712 UF000000000,45            1005    5218921003274366MAPCIMAP          19            000C09 MAP176         TELEMARKETING MAPCITYT00000000N                                                                                                                                                                                                                                                                              000000
D2017072517600100000100325840779216              A20170721 UF000000000,45            1002            62324830MAPCIMAP          19            000C03 MAP176         TELEMARKETING MAPCITYP00000000N                                                                                                                                                                                                                                                                              000000
D2017072517600100000100325840779217              A20170719 UF000000000,45            1002            61507124MAPCIMAP          19            000C09 MAP176         TELEMARKETING MAPCITYP00000000N                                                                                                                                                                                                                                                                              000000
D2017072517600100000100325840779218              A20170706 UF000000000,45            1002            71364631MAPCIMAP          19            000C03 MAP176         TELEMARKETING MAPCITYP00000000N                                                                                                                                                                                                                                                                              000000
D2017072517600100000100325840779224              A20170721 UF000000000,45            1002             4377770MAPCIMAP          19            000C09 MAP176         TELEMARKETING MAPCITYP00000000N                                                                                                                                                                                                                                                                              000000
D2017072517600100000100325840779225              A20170721 UF000000000,45            1002            25874420MAPCIMAP          19            000C09 MAP176         TELEMARKETING MAPCITYP00000000N                                                                                                                                                                                                                                                                              000000
D2017072517600100000100325840779227              A20170721 UF000000000,45            1002            61845712MAPCIMAP          19            000C09 MAP176         TELEMARKETING MAPCITYP00000000N                                                                                                                                                                                                                                                                              000000
D2017072517600100000100325840779229              A20170710 UF000000000,45            1002             3629406MAPCIMAP          19            000C09 MAP176         TELEMARKETING MAPCITYP00000000N                                                                                                                                                                                                                                                                              000000
D2017072517600100000100325840779231              A20170721 UF000000000,45            1002          1705740565MAPCIMAP          19            000C09 MAP176         TELEMARKETING MAPCITYP00000000N                                                                                                                                                                                                                                                                              000000
D2017072517600100000100325840779232              A20170721 UF000000000,45            1002            64370596MAPCIMAP          19            000C09 MAP176         TELEMARKETING MAPCITYP00000000N                                                                                                                                                                                                                                                                              000000
D2017072517600100000100325840779233              A20170721 UF000000000,45            1002             6635733MAPCIMAP          19            000C09 MAP176         TELEMARKETING MAPCITYP00000000N                                                                                                                                                                                                                                                                              000000
D2017072517600100000100325840779234              A20170721 UF000000000,45            1002            67512588MAPCIMAP          19            000C02 MAP176         TELEMARKETING MAPCITYP00000000N                                                                                                                                                                                                                                                                              000000
D2017072517600100000100325840779236              A20170721 UF000000000,45            1002             5661102MAPCIMAP          19            000C03 MAP176         TELEMARKETING MAPCITYP00000000N                                                                                                                                                                                                                                                                              000000
D2017072517600100000100325840779237              B20170721 UF000000000,65            1005    5491621001972791MAPCIMAP          19            000C03 MAP176         TELEMARKETING MAPCITYT00000000N                                                                                                                                                                                                                                                                              000000
D2017072517600100000100325840779238              A20170721 UF000000000,45            1004    4421741000401788MAPCIMAP          19            000C03 MAP176         TELEMARKETING MAPCITYT00000000N                                                                                                                                                                                                                                                                              000000
D2017072517600100000100325840779239              A20170721 UF000000000,45            1005    5491621002044202MAPCIMAP          19            000C03 MAP176         TELEMARKETING MAPCITYT00000000N                                                                                                                                                                                                                                                                              000000
D2017072517600100000100325840779240              A20170721 UF000000000,45            1002            71053326MAPCIMAP          19            000C09 MAP176         TELEMARKETING MAPCITYP00000000N                                                                                                                                                                                                                                                                              000000
D2017072517600100000100325840779242              A20170721 UF000000000,45            1002            69118577MAPCIMAP          19            000C02 MAP176         TELEMARKETING MAPCITYP00000000N                                                                                                                                                                                                                                                                              000000
D2017072517600100000100325840779243              A20170721 UF000000000,45            1002             4533763MAPCIMAP          19            000C03 MAP176         TELEMARKETING MAPCITYP00000000N                                                                                                                                                                                                                                                                              000000
D2017072517600100000100325840779244              A20170721 UF000000000,45            1002            67647467MAPCIMAP          19            000C09 MAP176         TELEMARKETING MAPCITYP00000000N                                                                                                                                                                                                                                                                              000000
D2017072517600100000100325840779245              A20170721 UF000000000,45            1002            67702190MAPCIMAP          19            000C09 MAP176         TELEMARKETING MAPCITYP00000000N                                                                                                                                                                                                                                                                              000000
D2017072517600100000100325840779246              A20170721 UF000000000,45            1002            67962559MAPCIMAP          19            000C02 MAP176         TELEMARKETING MAPCITYP00000000N                                                                                                                                                                                                                                                                              000000
D2017072517600100000100325840779247              A20170721 UF000000000,45            1002            67173945MAPCIMAP          19            000C02 MAP176         TELEMARKETING MAPCITYP00000000N                                                                                                                                                                                                                                                                              000000
D2017072517600100000100325840779248              A20170721 UF000000000,45            1002            64136437MAPCIMAP          19            000C02 MAP176         TELEMARKETING MAPCITYP00000000N                                                                                                                                                                                                                                                                              000000
D2017072517600100000100325840779249              A20170721 UF000000000,45            1002            69822452MAPCIMAP          19            000C03 MAP176         TELEMARKETING MAPCITYP00000000N                                                                                                                                                                                                                                                                              000000
D2017072517600100000100325840779250              A20170721 UF000000000,45            1002             2335107MAPCIMAP          19            000C03 MAP176         TELEMARKETING MAPCITYP00000000N                                                                                                                                                                                                                                                                              000000
D2017072517600100000100325840779251              A20170721 UF000000000,45            1002            64327780MAPCIMAP          19            000C09 MAP176         TELEMARKETING MAPCITYP00000000N                                                                                                                                                                                                                                                                              000000
D2017072517600100000100325840779252              A20170721 UF000000000,45            1002            65046717MAPCIMAP          19            000C02 MAP176         TELEMARKETING MAPCITYP00000000N                                                                                                                                                                                                                                                                              000000
D2017072517600100000100325840779254              B20170721 UF000000000,65            1002            64846493MAPCIMAP          19            000C09 MAP176         TELEMARKETING MAPCITYP00000000N                                                                                                                                                                                                                                                                              000000
D2017072517600100000100325840779255              A20170721 UF000000000,45            1002          7400339427MAPCIMAP          19            000C09 MAP176         TELEMARKETING MAPCITYP00000000N                                                                                                                                                                                                                                                                              000000
D2017072517600100000100325840779256              A20170721 UF000000000,45            1002            68582024MAPCIMAP          19            000C02 MAP176         TELEMARKETING MAPCITYP00000000N                                                                                                                                                                                                                                                                              000000
D2017072517600100000100325840779257              A20170721 UF000000000,45            1002              128520MAPCIMAP          19            000C02 MAP176         TELEMARKETING MAPCITYP00000000N                                                                                                                                                                                                                                                                              000000
D2017072517600100000100325840779258              A20170721 UF000000000,45            1002            68039495MAPCIMAP          19            000C09 MAP176         TELEMARKETING MAPCITYP00000000N                                                                                                                                                                                                                                                                              000000
D2017072517600100000100325840779259              A20170721 UF000000000,45            1002            69064841MAPCIMAP          19            000C09 MAP176         TELEMARKETING MAPCITYP00000000N                                                                                                                                                                                                                                                                              000000
D2017072517600100000100325840779260              A20170721 UF000000000,45            1002            65340232MAPCIMAP          19            000C03 MAP176         TELEMARKETING MAPCITYP00000000N                                                                                                                                                                                                                                                                              000000
D2017072517600100000100325840779261              A20170721 UF000000000,45            1002            66580989MAPCIMAP          19            000C09 MAP176         TELEMARKETING MAPCITYP00000000N                                                                                                                                                                                                                                                                              000000
D2017072517600100000100325840779263              A20170721 UF000000000,45            1002             3043100MAPCIMAP          19            000C09 MAP176         TELEMARKETING MAPCITYP00000000N                                                                                                                                                                                                                                                                              000000
D2017072517600100000100325840779264              A20170721 UF000000000,45            1002            25726588MAPCIMAP          19            000C09 MAP176         TELEMARKETING MAPCITYP00000000N                                                                                                                                                                                                                                                                              000000
D2017072517600100000100325840779266              A20170721 UF000000000,45            1005    5404771017851889MAPCIMAP          19            000C03 MAP176         TELEMARKETING MAPCITYT00000000N                                                                                                                                                                                                                                                                              000000
D2017072517600100000100325840779267              A20170721 UF000000000,45            1005    5218921001299373MAPCIMAP          19            000C03 MAP176         TELEMARKETING MAPCITYT00000000N                                                                                                                                                                                                                                                                              000000
D2017072517600100000100325840779268              A20170721 UF000000000,45            1002            68413060MAPCIMAP          19            000C09 MAP176         TELEMARKETING MAPCITYP00000000N                                                                                                                                                                                                                                                                              000000
D2017072517600100000100325840779269              A20170721 UF000000000,45            1002             1887467MAPCIMAP          19            000C09 MAP176         TELEMARKETING MAPCITYP00000000N                                                                                                                                                                                                                                                                              000000
D2017072517600100000100325840779271              A20170721 UF000000000,45            1002            62940689MAPCIMAP          19            000C09 MAP176         TELEMARKETING MAPCITYP00000000N                                                                                                                                                                                                                                                                              000000
D2017072517600100000100325840779272              A20170721 UF000000000,45            1002            64295012MAPCIMAP          19            000C09 MAP176         TELEMARKETING MAPCITYP00000000N                                                                                                                                                                                                                                                                              000000
D2017072517600100000100325840779273              A20170721 UF000000000,45            1002            69354670MAPCIMAP          19            000C02 MAP176         TELEMARKETING MAPCITYP00000000N                                                                                                                                                                                                                                                                              000000
D2017072517600100000100325840779274              A20170721 UF000000000,45            1002            63578347MAPCIMAP          19            000C09 MAP176         TELEMARKETING MAPCITYP00000000N                                                                                                                                                                                                                                                                              000000
D2017072517600100000100325840779275              A20170721 UF000000000,45            1002              334065MAPCIMAP          19            000C09 MAP176         TELEMARKETING MAPCITYP00000000N                                                                                                                                                                                                                                                                              000000
D2017072517600100000100325840779276              A20170721 UF000000000,45            1002            65837595MAPCIMAP          19            000C09 MAP176         TELEMARKETING MAPCITYP00000000N                                                                                                                                                                                                                                                                              000000
D2017072517600100000100325840779277              A20170721 UF000000000,45            1002            66676730MAPCIMAP          19            000C03 MAP176         TELEMARKETING MAPCITYP00000000N                                                                                                                                                                                                                                                                              000000
D2017072517600100000100325840779278              A20170721 UF000000000,45            1002            61932100MAPCIMAP          19            000C09 MAP176         TELEMARKETING MAPCITYP00000000N                                                                                                                                                                                                                                                                              000000
D2017072517600100000100325840779279              A20170721 UF000000000,45            1005    5218921003694415MAPCIMAP          19            000C03 MAP176         TELEMARKETING MAPCITYT00000000N                                                                                                                                                                                                                                                                              000000
D2017072517600100000100325840779280              B20170721 UF000000000,65            1002           440014276MAPCIMAP          19            000C09 MAP176         TELEMARKETING MAPCITYP00000000N                                                                                                                                                                                                                                                                              000000
D2017072517600100000100325840779281              A20170721 UF000000000,45            1002            67766350MAPCIMAP          19            000C03 MAP176         TELEMARKETING MAPCITYP00000000N                                                                                                                                                                                                                                                                              000000
D2017072517600100000100325840779282              A20170721 UF000000000,45            1002            64704346MAPCIMAP          19            000C09 MAP176         TELEMARKETING MAPCITYP00000000N                                                                                                                                                                                                                                                                              000000
D2017072517600100000100325840779283              A20170721 UF000000000,45            1002             5272599MAPCIMAP          19            000C03 MAP176         TELEMARKETING MAPCITYP00000000N                                                                                                                                                                                                                                                                              000000
D2017072517600100000100325840779284              A20170721 UF000000000,45            1002            68764688MAPCIMAP          19            000C02 MAP176         TELEMARKETING MAPCITYP00000000N                                                                                                                                                                                                                                                                              000000
D2017072517600100000100325840779285              A20170721 UF000000000,45            1005    5491621002699112MAPCIMAP          19            000C03 MAP176         TELEMARKETING MAPCITYT00000000N                                                                                                                                                                                                                                                                              000000
D2017072517600100000100325840779286              A20170721 UF000000000,45            1005    5218921004050567MAPCIMAP          19            000C09 MAP176         TELEMARKETING MAPCITYT00000000N                                                                                                                                                                                                                                                                              000000
D2017072517600100000100325840779287              A20170721 UF000000000,45            1002             3277070MAPCIMAP          19            000C03 MAP176         TELEMARKETING MAPCITYP00000000N                                                                                                                                                                                                                                                                              000000
D2017072517600100000100325840779288              A20170721 UF000000000,45            1002            67641981MAPCIMAP          19            000C02 MAP176         TELEMARKETING MAPCITYP00000000N                                                                                                                                                                                                                                                                              000000
D2017072517600100000100325840779291              B20170721 UF000000000,65            1002            64609971MAPCIMAP          19            000C09 MAP176         TELEMARKETING MAPCITYP00000000N                                                                                                                                                                                                                                                                              000000
D2017072517600100000100325840779293              A20170721 UF000000000,45            1005    5491621003565106MAPCIMAP          19            000C03 MAP176         TELEMARKETING MAPCITYT00000000N                                                                                                                                                                                                                                                                              000000
D2017072517600100000100325840779294              A20170721 UF000000000,45            1002            65750899MAPCIMAP          19            000C09 MAP176         TELEMARKETING MAPCITYP00000000N                                                                                                                                                                                                                                                                              000000
D2017072517600100000100325840779295              A20170721 UF000000000,45            1002             2479559MAPCIMAP          19            000C09 MAP176         TELEMARKETING MAPCITYP00000000N                                                                                                                                                                                                                                                                              000000
D2017072517600100000100325840779296              A20170721 UF000000000,45            1002            40546332MAPCIMAP          19            000C03 MAP176         TELEMARKETING MAPCITYP00000000N                                                                                                                                                                                                                                                                              000000
D2017072517600100000100325840779298              A20170721 UF000000000,45            1002            71150313MAPCIMAP          19            000C03 MAP176         TELEMARKETING MAPCITYP00000000N                                                                                                                                                                                                                                                                              000000
D2017072517600100000100325840779299              A20170721 UF000000000,45            1002            70767031MAPCIMAP          19            000C09 MAP176         TELEMARKETING MAPCITYP00000000N                                                                                                                                                                                                                                                                              000000
D2017072517600100000100325840779300              A20170721 UF000000000,45            1002            67099133MAPCIMAP          19            000C03 MAP176         TELEMARKETING MAPCITYP00000000N                                                                                                                                                                                                                                                                              000000
D2017072517600100000100325840779301              A20170721 UF000000000,45            1002            71405249MAPCIMAP          19            000C09 MAP176         TELEMARKETING MAPCITYP00000000N                                                                                                                                                                                                                                                                              000000
D2017072517600100000100325840779302              A20170721 UF000000000,45            1002            71375544MAPCIMAP          19            000C09 MAP176         TELEMARKETING MAPCITYP00000000N                                                                                                                                                                                                                                                                              000000
D2017072517600100000100325840779304              A20170721 UF000000000,45            1002            71228851MAPCIMAP          19            000C09 MAP176         TELEMARKETING MAPCITYP00000000N                                                                                                                                                                                                                                                                              000000
D2017072517600100000100325840779308              A20170721 UF000000000,45            1002         62191480193MAPCIMAP          19            000C02 MAP176         TELEMARKETING MAPCITYP00000000N                                                                                                                                                                                                                                                                              000000
D2017072517600100000100325840779309              A20170721 UF000000000,45            1002            66721868MAPCIMAP          19            000C02 MAP176         TELEMARKETING MAPCITYP00000000N                                                                                                                                                                                                                                                                              000000
D2017072517600100000100325840779312              A20170721 UF000000000,45            1002            63866598MAPCIMAP          19            000C03 MAP176         TELEMARKETING MAPCITYP00000000N                                                                                                                                                                                                                                                                              000000
D2017072517600100000100325840779313              A20170721 UF000000000,45            1002            69884032MAPCIMAP          19            000C09 MAP176         TELEMARKETING MAPCITYP00000000N                                                                                                                                                                                                                                                                              000000
D2017072517600100000100325940779206              A20170721 UF000000000,38            1002             6657184MAPCIMAP          19            000C03 MAP176         TELEMARKETING MAPCITYP00000000N                                                                                                                                                                                                                                                                              000000
D2017072517600100000100325940779210              A20170721 UF000000000,38            1002            26055490MAPCIMAP          19            000C03 MAP176         TELEMARKETING MAPCITYP00000000N                                                                                                                                                                                                                                                                              000000
D2017072517600100000100325940779211              A20170721 UF000000000,38            1002            26055490MAPCIMAP          19            000C03 MAP176         TELEMARKETING MAPCITYP00000000N                                                                                                                                                                                                                                                                              000000
D2017072517600100000100325940779212              A20170710 UF000000000,38            1005    5218921004574871MAPCIMAP          19            000C02 MAP176         TELEMARKETING MAPCITYT00000000N                                                                                                                                                                                                                                                                              000000
D2017072517600100000100325940779215              A20170712 UF000000000,38            1005    5218921003274366MAPCIMAP          19            000C09 MAP176         TELEMARKETING MAPCITYT00000000N                                                                                                                                                                                                                                                                              000000
D2017072517600100000100325940779219              A20170706 UF000000000,38            1002            71364631MAPCIMAP          19            000C03 MAP176         TELEMARKETING MAPCITYP00000000N                                                                                                                                                                                                                                                                              000000
D2017072517600100000100325940779220              A20170706 UF000000000,38            1002            71364631MAPCIMAP          19            000C03 MAP176         TELEMARKETING MAPCITYP00000000N                                                                                                                                                                                                                                                                              000000
D2017072517600100000100325940779221              A20170706 UF000000000,38            1002            71364631MAPCIMAP          19            000C03 MAP176         TELEMARKETING MAPCITYP00000000N                                                                                                                                                                                                                                                                              000000
D2017072517600100000100325940779222              A20170706 UF000000000,38            1002            71364631MAPCIMAP          19            000C03 MAP176         TELEMARKETING MAPCITYP00000000N                                                                                                                                                                                                                                                                              000000
D2017072517600100000100325940779223              A20170706 UF000000000,38            1002            71364631MAPCIMAP          19            000C03 MAP176         TELEMARKETING MAPCITYP00000000N                                                                                                                                                                                                                                                                              000000
D2017072517600100000100325940779226              A20170721 UF000000000,38            1002            25874420MAPCIMAP          19            000C09 MAP176         TELEMARKETING MAPCITYP00000000N                                                                                                                                                                                                                                                                              000000
D2017072517600100000100325940779228              A20170721 UF000000000,38            1002            61845712MAPCIMAP          19            000C09 MAP176         TELEMARKETING MAPCITYP00000000N                                                                                                                                                                                                                                                                              000000
D2017072517600100000100325940779235              A20170721 UF000000000,38            1002            67512588MAPCIMAP          19            000C02 MAP176         TELEMARKETING MAPCITYP00000000N                                                                                                                                                                                                                                                                              000000
D2017072517600100000100325940779241              A20170721 UF000000000,38            1002            71053326MAPCIMAP          19            000C09 MAP176         TELEMARKETING MAPCITYP00000000N                                                                                                                                                                                                                                                                              000000
D2017072517600100000100325940779253              A20170721 UF000000000,38            1002            65046717MAPCIMAP          19            000C02 MAP176         TELEMARKETING MAPCITYP00000000N                                                                                                                                                                                                                                                                              000000
D2017072517600100000100325940779262              A20170721 UF000000000,38            1002            66580989MAPCIMAP          19            000C09 MAP176         TELEMARKETING MAPCITYP00000000N                                                                                                                                                                                                                                                                              000000
D2017072517600100000100325940779265              A20170721 UF000000000,38            1002            25726588MAPCIMAP          19            000C09 MAP176         TELEMARKETING MAPCITYP00000000N                                                                                                                                                                                                                                                                              000000
D2017072517600100000100325940779270              A20170721 UF000000000,38            1002            62940689MAPCIMAP          19            000C09 MAP176         TELEMARKETING MAPCITYP00000000N                                                                                                                                                                                                                                                                              000000
D2017072517600100000100325940779289              A20170721 UF000000000,38            1002            67641981MAPCIMAP          19            000C02 MAP176         TELEMARKETING MAPCITYP00000000N                                                                                                                                                                                                                                                                              000000
D2017072517600100000100325940779290              A20170721 UF000000000,38            1002            67641981MAPCIMAP          19            000C02 MAP176         TELEMARKETING MAPCITYP00000000N                                                                                                                                                                                                                                                                              000000
D2017072517600100000100325940779292              B20170721 UF000000000,55            1002            64609971MAPCIMAP          19            000C09 MAP176         TELEMARKETING MAPCITYP00000000N                                                                                                                                                                                                                                                                              000000
D2017072517600100000100325940779297              A20170721 UF000000000,38            1002            40546332MAPCIMAP          19            000C03 MAP176         TELEMARKETING MAPCITYP00000000N                                                                                                                                                                                                                                                                              000000
D2017072517600100000100325940779303              A20170721 UF000000000,38            1002            71228851MAPCIMAP          19            000C09 MAP176         TELEMARKETING MAPCITYP00000000N                                                                                                                                                                                                                                                                              000000
D2017072517600100000100325940779305              A20170721 UF000000000,38            1002            71228851MAPCIMAP          19            000C09 MAP176         TELEMARKETING MAPCITYP00000000N                                                                                                                                                                                                                                                                              000000
D2017072503400100000100326701865476              A20170724 UF000000005,00            4002            68526116INBCOINB          19            000C09 INB034                INTERNET BANCOP00000000              NO                                                                                                                                                                                                                                                               070170
D2017072503400100000100326801865469              F20170724 UF000000000,78            1002            69481523INBCOINB          19            000C09 INB034                INTERNET BANCOP00000000              NOASEGURADO NO DELCARA ACTIVIDADES NI DEPORTES RIESGOSO                                                                                                                                                                                                          070170
D2017072517600100000100326840779205              H20170719 UF000000000,63            1004    4966711001759220MAPCIMAP          19            000C09 MAP176         TELEMARKETING MAPCITYT00000000N                                                                                                                                                                                                                                                                              000000
D2017072503400100000100328201865475              B20170724 UF000000007,74            4002            71391787INBCOINB          19            000C02 INB034                INTERNET BANCOP00000000              NO                                                                                                                                                                                                                                                               070170
D2017072517600100000100329540779129              B20170720 UF000000000,40            1005    5404771020099104MAPCIMAP          19            000C09 MAP176         TELEMARKETING MAPCITYT00000000N                                                                                                                                                                                                                                                                              000000
D2017072517600100000100329540779130              B20170718 UF000000000,40            1002            71015475MAPCIMAP          19            000C09 MAP176         TELEMARKETING MAPCITYP00000000N                                                                                                                                                                                                                                                                              000000
D2017072517600100000100329540779131              B20170717 UF000000000,40            1005    5473691002621244MAPCIMAP          19            000C09 MAP176         TELEMARKETING MAPCITYT00000000N                                                                                                                                                                                                                                                                              000000
D2017072517600100000100329540779132              B20170721 UF000000000,40            1002            65913844MAPCIMAP          19            000C09 MAP176         TELEMARKETING MAPCITYP00000000N                                                                                                                                                                                                                                                                              000000
D2017072517600100000100329540779133              B20170721 UF000000000,40            1002            62212241MAPCIMAP          19            000C09 MAP176         TELEMARKETING MAPCITYP00000000N                                                                                                                                                                                                                                                                              000000
D2017072517600100000100329540779134              B20170721 UF000000000,40            1002            64283340MAPCIMAP          19            000C09 MAP176         TELEMARKETING MAPCITYP00000000N                                                                                                                                                                                                                                                                              000000
D2017072517600100000100329540779135              B20170721 UF000000000,40            1005    5404771019962270MAPCIMAP          19            000C09 MAP176         TELEMARKETING MAPCITYT00000000N                                                                                                                                                                                                                                                                              000000
D2017072517600100000100329540779136              B20170721 UF000000000,40            1005    5332251001178950MAPCIMAP          19            000C09 MAP176         TELEMARKETING MAPCITYT00000000N                                                                                                                                                                                                                                                                              000000
D2017072517600100000100329540779137              B20170719 UF000000000,40            1002            70289555MAPCIMAP          19            000C09 MAP176         TELEMARKETING MAPCITYP00000000N                                                                                                                                                                                                                                                                              000000
D2017072517600100000100329540779138              B20170720 UF000000000,40            1005    5404771019053229MAPCIMAP          19            000C09 MAP176         TELEMARKETING MAPCITYT00000000N                                                                                                                                                                                                                                                                              000000
D2017072517600100000100329540779139              B20170720 UF000000000,40            1002            69250963MAPCIMAP          19            000C09 MAP176         TELEMARKETING MAPCITYP00000000N                                                                                                                                                                                                                                                                              000000
D2017072517600100000100329540779140              B20170721 UF000000000,40            1002            67560205MAPCIMAP          19            000C09 MAP176         TELEMARKETING MAPCITYP00000000N                                                                                                                                                                                                                                                                              000000
D2017072517600100000100329540779141              B20170720 UF000000000,40            1002            68372399MAPCIMAP          19            000C02 MAP176         TELEMARKETING MAPCITYP00000000N                                                                                                                                                                                                                                                                              000000
D2017072517600100000100329540779142              B20170721 UF000000000,40            1002            67501950MAPCIMAP          19            000C03 MAP176         TELEMARKETING MAPCITYP00000000N                                                                                                                                                                                                                                                                              000000
D2017072517600100000100329540779143              B20170721 UF000000000,40            1002            68120667MAPCIMAP          19            000C09 MAP176         TELEMARKETING MAPCITYP00000000N                                                                                                                                                                                                                                                                              000000
D2017072517600100000100329540779144              B20170720 UF000000000,40            1002            67316088MAPCIMAP          19            000C03 MAP176         TELEMARKETING MAPCITYP00000000N                                                                                                                                                                                                                                                                              000000
D2017072517600100000100329540779145              B20170721 UF000000000,40            1002            65080397MAPCIMAP          19            000C02 MAP176         TELEMARKETING MAPCITYP00000000N                                                                                                                                                                                                                                                                              000000
D2017072517600100000100329540779146              B20170721 UF000000000,40            1002            70699605MAPCIMAP          19            000C03 MAP176         TELEMARKETING MAPCITYP00000000N                                                                                                                                                                                                                                                                              000000
D2017072517600100000100329540779147              B20170721 UF000000000,40            1004    4152811016962258MAPCIMAP          19            000C09 MAP176         TELEMARKETING MAPCITYT00000000N                                                                                                                                                                                                                                                                              000000
D2017072517600100000100329540779148              B20170721 UF000000000,40            1002            69294073MAPCIMAP          19            000C09 MAP176         TELEMARKETING MAPCITYP00000000N                                                                                                                                                                                                                                                                              000000
D2017072517600100000100329540779149              B20170721 UF000000000,40            1002            61605215MAPCIMAP          19            000C09 MAP176         TELEMARKETING MAPCITYP00000000N                                                                                                                                                                                                                                                                              000000
D2017072517600100000100329540779150              B20170721 UF000000000,40            1005    5404771019932729MAPCIMAP          19            000C09 MAP176         TELEMARKETING MAPCITYT00000000N                                                                                                                                                                                                                                                                              000000
D2017072517600100000100329540779151              B20170721 UF000000000,40            1002            69625614MAPCIMAP          19            000C03 MAP176         TELEMARKETING MAPCITYP00000000N                                                                                                                                                                                                                                                                              000000
D2017072517600100000100329540779152              B20170721 UF000000000,40            1002            69072607MAPCIMAP          19            000C09 MAP176         TELEMARKETING MAPCITYP00000000N                                                                                                                                                                                                                                                                              000000
D2017072517600100000100329540779153              B20170721 UF000000000,40            1002            67992776MAPCIMAP          19            000C09 MAP176         TELEMARKETING MAPCITYP00000000N                                                                                                                                                                                                                                                                              000000
D2017072517600100000100329540779154              B20170721 UF000000000,40            1002            69828345MAPCIMAP          19            000C09 MAP176         TELEMARKETING MAPCITYP00000000N                                                                                                                                                                                                                                                                              000000
D2017072517600100000100329540779155              B20170721 UF000000000,40            1002            70430983MAPCIMAP          19            000C09 MAP176         TELEMARKETING MAPCITYP00000000N                                                                                                                                                                                                                                                                              000000
D2017072517600100000100329540779156              B20170721 UF000000000,40            1002            68133041MAPCIMAP          19            000C09 MAP176         TELEMARKETING MAPCITYP00000000N                                                                                                                                                                                                                                                                              000000
D2017072517600100000100329540779157              B20170721 UF000000000,40            1002            68391830MAPCIMAP          19            000C09 MAP176         TELEMARKETING MAPCITYP00000000N                                                                                                                                                                                                                                                                              000000
D2017072517600100000100329540779158              B20170721 UF000000000,40            1002            68931851MAPCIMAP          19            000C09 MAP176         TELEMARKETING MAPCITYP00000000N                                                                                                                                                                                                                                                                              000000
D2017072517600100000100329540779159              B20170721 UF000000000,40            1002            70499657MAPCIMAP          19            000C02 MAP176         TELEMARKETING MAPCITYP00000000N                                                                                                                                                                                                                                                                              000000
D2017072517600100000100329540779160              B20170721 UF000000000,40            1005    5473691002806357MAPCIMAP          19            000C09 MAP176         TELEMARKETING MAPCITYT00000000N                                                                                                                                                                                                                                                                              000000
D2017072517600100000100329540779161              B20170721 UF000000000,40            1004    4152811015898453MAPCIMAP          19            000C09 MAP176         TELEMARKETING MAPCITYT00000000N                                                                                                                                                                                                                                                                              000000
D2017072517600100000100329540779162              B20170721 UF000000000,40            1002            69741452MAPCIMAP          19            000C09 MAP176         TELEMARKETING MAPCITYP00000000N                                                                                                                                                                                                                                                                              000000
D2017072517600100000100329540779163              B20170721 UF000000000,40            1002            68388058MAPCIMAP          19            000C09 MAP176         TELEMARKETING MAPCITYP00000000N                                                                                                                                                                                                                                                                              000000
D2017072517600100000100329540779164              B20170721 UF000000000,40            1002            71041123MAPCIMAP          19            000C09 MAP176         TELEMARKETING MAPCITYP00000000N                                                                                                                                                                                                                                                                              000000
D2017072517600100000100329540779165              B20170721 UF000000000,40            1002            66088197MAPCIMAP          19            000C09 MAP176         TELEMARKETING MAPCITYP00000000N                                                                                                                                                                                                                                                                              000000
D2017072517600100000100329540779166              B20170721 UF000000000,40            1004    4152811012342190MAPCIMAP          19            000C02 MAP176         TELEMARKETING MAPCITYT00000000N                                                                                                                                                                                                                                                                              000000
D2017072517600100000100329540779167              B20170721 UF000000000,40            1005    5404771018407533MAPCIMAP          19            000C09 MAP176         TELEMARKETING MAPCITYT00000000N                                                                                                                                                                                                                                                                              000000
D2017072517600100000100329540779168              B20170721 UF000000000,40            1002            65475570MAPCIMAP          19            000C09 MAP176         TELEMARKETING MAPCITYP00000000N                                                                                                                                                                                                                                                                              000000
D2017072517600100000100329540779169              B20170721 UF000000000,40            1002            65253593MAPCIMAP          19            000C03 MAP176         TELEMARKETING MAPCITYP00000000N                                                                                                                                                                                                                                                                              000000
D2017072517600100000100329540779170              B20170721 UF000000000,40            1002            69412793MAPCIMAP          19            000C03 MAP176         TELEMARKETING MAPCITYP00000000N                                                                                                                                                                                                                                                                              000000
D2017072517600100000100329540779171              B20170721 UF000000000,40            1002            67183762MAPCIMAP          19            000C09 MAP176         TELEMARKETING MAPCITYP00000000N                                                                                                                                                                                                                                                                              000000
D2017072517600100000100329540779172              B20170721 UF000000000,40            1005    5473691002793423MAPCIMAP          19            000C02 MAP176         TELEMARKETING MAPCITYT00000000N                                                                                                                                                                                                                                                                              000000
D2017072517600100000100329540779173              B20170721 UF000000000,40            1002            67222040MAPCIMAP          19            000C09 MAP176         TELEMARKETING MAPCITYP00000000N                                                                                                                                                                                                                                                                              000000
D2017072517600100000100329540779174              B20170721 UF000000000,40            1002            66825442MAPCIMAP          19            000C09 MAP176         TELEMARKETING MAPCITYP00000000N                                                                                                                                                                                                                                                                              000000
D2017072517600100000100329540779175              B20170721 UF000000000,40            1002            69120130MAPCIMAP          19            000C09 MAP176         TELEMARKETING MAPCITYP00000000N                                                                                                                                                                                                                                                                              000000
D2017072517600100000100329540779176              B20170721 UF000000000,40            1005    5404771018832243MAPCIMAP          19            000C03 MAP176         TELEMARKETING MAPCITYT00000000N                                                                                                                                                                                                                                                                              000000
D2017072517600100000100329540779177              B20170721 UF000000000,40            1002            69103120MAPCIMAP          19            000C09 MAP176         TELEMARKETING MAPCITYP00000000N                                                                                                                                                                                                                                                                              000000
D2017072517600100000100329540779178              B20170721 UF000000000,40            1005    5404771015912949MAPCIMAP          19            000C09 MAP176         TELEMARKETING MAPCITYT00000000N                                                                                                                                                                                                                                                                              000000
D2017072517600100000100329540779179              B20170721 UF000000000,40            1002            65332990MAPCIMAP          19            000C03 MAP176         TELEMARKETING MAPCITYP00000000N                                                                                                                                                                                                                                                                              000000
D2017072517600100000100329540779180              B20170721 UF000000000,40            1002            66318354MAPCIMAP          19            000C09 MAP176         TELEMARKETING MAPCITYP00000000N                                                                                                                                                                                                                                                                              000000
D2017072517600100000100329540779181              B20170721 UF000000000,40            1002            68741122MAPCIMAP          19            000C02 MAP176         TELEMARKETING MAPCITYP00000000N                                                                                                                                                                                                                                                                              000000
D2017072517600100000100329540779182              B20170721 UF000000000,40            1002            67694449MAPCIMAP          19            000C02 MAP176         TELEMARKETING MAPCITYP00000000N                                                                                                                                                                                                                                                                              000000
D2017072517600100000100329540779183              B20170721 UF000000000,40            1002            70664623MAPCIMAP          19            000C09 MAP176         TELEMARKETING MAPCITYP00000000N                                                                                                                                                                                                                                                                              000000
D2017072517600100000100329540779184              B20170721 UF000000000,40            1005    5404771008654110MAPCIMAP          19            000C09 MAP176         TELEMARKETING MAPCITYT00000000N                                                                                                                                                                                                                                                                              000000
D2017072517600100000100329540779185              B20170721 UF000000000,40            1002            65268450MAPCIMAP          19            000C09 MAP176         TELEMARKETING MAPCITYP00000000N                                                                                                                                                                                                                                                                              000000
D2017072517600100000100329540779186              B20170721 UF000000000,40            1002            70957337MAPCIMAP          19            000C09 MAP176         TELEMARKETING MAPCITYP00000000N                                                                                                                                                                                                                                                                              000000
D2017072517600100000100329540779187              B20170721 UF000000000,40            1002            69325980MAPCIMAP          19            000C09 MAP176         TELEMARKETING MAPCITYP00000000N                                                                                                                                                                                                                                                                              000000
D2017072517600100000100329540779188              B20170721 UF000000000,40            1005    5404771020410764MAPCIMAP          19            000C09 MAP176         TELEMARKETING MAPCITYT00000000N                                                                                                                                                                                                                                                                              000000
D2017072517600100000100329540779189              B20170721 UF000000000,40            1002            70243598MAPCIMAP          19            000C09 MAP176         TELEMARKETING MAPCITYP00000000N                                                                                                                                                                                                                                                                              000000
D2017072517600100000100329540779190              B20170721 UF000000000,40            1002            63598755MAPCIMAP          19            000C09 MAP176         TELEMARKETING MAPCITYP00000000N                                                                                                                                                                                                                                                                              000000
D2017072517600100000100329540779191              B20170721 UF000000000,40            1002            66493199MAPCIMAP          19            000C02 MAP176         TELEMARKETING MAPCITYP00000000N                                                                                                                                                                                                                                                                              000000
D2017072517600100000100329540779192              B20170721 UF000000000,40            1002            69890008MAPCIMAP          19            000C09 MAP176         TELEMARKETING MAPCITYP00000000N                                                                                                                                                                                                                                                                              000000
D2017072517600100000100329540779193              B20170721 UF000000000,40            1002            64229788MAPCIMAP          19            000C09 MAP176         TELEMARKETING MAPCITYP00000000N                                                                                                                                                                                                                                                                              000000
D2017072517600100000100329540779194              B20170721 UF000000000,40            1002            66117367MAPCIMAP          19            000C09 MAP176         TELEMARKETING MAPCITYP00000000N                                                                                                                                                                                                                                                                              000000
D2017072517600100000100329540779195              B20170721 UF000000000,40            1002            69397395MAPCIMAP          19            000C02 MAP176         TELEMARKETING MAPCITYP00000000N                                                                                                                                                                                                                                                                              000000
D2017072517600100000100329540779196              B20170721 UF000000000,40            1002            67086708MAPCIMAP          19            000C09 MAP176         TELEMARKETING MAPCITYP00000000N                                                                                                                                                                                                                                                                              000000
D2017072517600100000100329540779197              B20170721 UF000000000,40            1002            62772948MAPCIMAP          19            000C09 MAP176         TELEMARKETING MAPCITYP00000000N                                                                                                                                                                                                                                                                              000000
D2017072517600100000100329540779198              B20170721 UF000000000,40            1002            71420272MAPCIMAP          19            000C09 MAP176         TELEMARKETING MAPCITYP00000000N                                                                                                                                                                                                                                                                              000000
D2017072517600100000100329540779199              B20170721 UF000000000,40            1002            65157446MAPCIMAP          19            000C09 MAP176         TELEMARKETING MAPCITYP00000000N                                                                                                                                                                                                                                                                              000000
D2017072517600100000100329540779200              B20170721 UF000000000,40            1002            66853268MAPCIMAP          19            000C09 MAP176         TELEMARKETING MAPCITYP00000000N                                                                                                                                                                                                                                                                              000000
D2017072517600100000100329540779201              B20170721 UF000000000,40            1002             6633099MAPCIMAP          19            000C09 MAP176         TELEMARKETING MAPCITYP00000000N                                                                                                                                                                                                                                                                              000000
D2017072517600100000100329540779202              B20170721 UF000000000,40            1002            69362532MAPCIMAP          19            000C09 MAP176         TELEMARKETING MAPCITYP00000000N                                                                                                                                                                                                                                                                              000000
D2017072517600100000100329540779203              B20170721 UF000000000,40            1002            68585813MAPCIMAP          19            000C09 MAP176         TELEMARKETING MAPCITYP00000000N                                                                                                                                                                                                                                                                              000000
