C20170802231                                                                                                                                     000
D20170802  0088412559              AFFELD          LUCHSINGER              MARLYN ROSE19601028FC                    0000000000                                                                     TRIZANO 427000000000000
D20170802  0162172611            ANABALON           GUTIERREZ            LORETO ANDREA19850925FS                    0000000000                                                                PASAJE KREMS 485000000000000
D20170802  0083028785           PALOMINOS            GONZALEZ            NELSON DANIEL19610219MC                    0000000000                                                      AVENIDA CONCHA Y TORO 2680000000000000
D20170802  0136123947               PALMA              VALDES            CRISTIAN RAUL19790723MS                    0000000000                                                       CAMINO LA LAJA  PARCELA 4000000000000
D20170802  0161323586            TRUJILLO            TRUJILLO             JUAN ANTONIO19850624MS           9429784170001400073                                                     villa mariano caro inca 476000000000000
D20170802  0131934777             BARRAZA              GUERRA             PAOLA ANDREA19770703FS           9517889400018800136                                           GIRO DE TRASLACION 213 LOTEO SANCHINA000000000000
D20170802  008729269K                SOTO             VIGUERA                MARIA PAZ19670915FD           9982793950000100009                                         AVENIDA PRESIDENTE RIESCO 4001 DPTO 301000000000000
D20170802  0032529828          LUCHSINGER          SCHIFFERLI              NORMA ELENA19310617FV           9981866710066600254                                                                    TRISANOZ 427000000000000
D20170802  0224190387               MARIN                PENA                 NORBERTO19710528MS           9953144740008800082            AV DARIO SALAS 100 CONDOMINIO PLAYA LA HERRADURA DPTO 810 , COQUIMBO000000000000
D20170802  0136123947               PALMA              VALDES            CRISTIAN RAUL19790723MS           9968968600004300293                                   Los quletehues 549 Villa Altos del Llanquihue000000000000
D20170802  0182804207             PUCHER               LIZAMA        CLAUDIA FRANCISCA19920826FS           9968968600004300293                                   Los queltehues 549, Villa Altos de LLanquihue000000000000
D20170802  0091298961              ENCINA            CARVAJAL               OLGA MARIA19630405FD           9780701730066600254                                      EL ALAZAN 098 CONDOMINIO 1 ALTOS DEL MAIPO000000000000
D20170802  0178180681             AGUILAR               VIDAL        DANIELA CONSTANZA19901124FS           9771127550000100024                                                                cuadro verde 020000000000000
D20170802  0062037369            D OTTONE             MORALES               ROSA DJANA19510610FS           2245380350000100009                                                        DEL INCA 5730 DEPTO. 203000000000000
D20170802  0161786918               SMITH              ESTEFO                STEPHANIE19851219FS                   00000100009                                                    LAS VERBENAS 9235 DEPTO 1203000000000000
D20170802  0065715511            COLLADOS              BAINES           LORENZO DANIEL19530122MC           2272740820000100009                                                         LUIS MATTE LARRAIN 9654000000000000
D20170802  0115286579              GALVEZ           CONTRERAS          EDUARDO GABRIEL19700424MD           2236378900000100001                                                   MERCED 562 DEPTO 1106 TORRE B000000000000
D20170802  0123521439               REYES                ROCO                ANA MARIA19731030FS           2269634150000100001                                                   SANTO DOMINGO 1364 DEPTO 2008000000000000
D20170802  0162172611            ANABALON           GUTIERREZ            LORETO ANDREA19850925FS           4324317970003400214                                  Avenida Oriente 1279, Torre A departamento 305000000000000
D20170802  0154940901               Barra             Faundez            Jorge Gonzalo19840715MS           4324317970003400214                                 Avenida Oriente 1279, torre A, departamento 305000000000000
D20170802  0157456571               ROJAS           CAMPILLAY         JANINE ALEJANDRA19840329FS           2659469420001200067                                                               RIO DE JANEIRO 12000000000000
D20170802  0172832288            GONZALEZ               ULLOA            FELIPE JAVIER19900511MS           2232030000000100019                                             ALCALDE PEDRO ALARCON 887 DEPTO 305000000000000
D20170802  0177369977               LABBE               GAETE        IGNACIO ALEJANDRO19900808MS           9617031840000100016                                                         PASAJE RIO CHOAPA 10037000000000000
D20170802  0140784338               OPAZO              CORTES       YESSENIA ELIZABETH19801213FS           9422190130004300292                                                  NUEVA DIEZ 5013 VALLE VOLCANES000000000000
D20170802  014208449K             GIOLITO             ANDRADE             LUIS ESTEBAN19811016MS           2569854150003400214                                                  COLO COLO 742 DEPARTAMENTO 205000000000000
D20170802  0174088454               RAMOS             ARANEDA     LEONARDO DANIEL OMAR19900714MS           9819405330000100006                                                     Ricardo lyon 1656 depto 402000000000000
D20170802  0153396523               DUQUE             NAVARRO            CARLOS ANDRES19830113MV           9421545260066900036                                                    EL TAIHUEL 07130 PUENTE ALTO000000000000
D20170802  0153933200               BEIZA          NAPOLITANO              PAULA ELENA19820624FS           2223456780066900036                                                TAIHUEL 07130 PORTEZUELO ORIENTE000000000000
D20170802  0122102343               PEREZ            MIQUELES                   SARINA19720526FC           2224259520002300411                                              AVDA COSTA DE MONTEMAR 710 DP. 195000000000000
D20170802  0178942557              MILLAN               MARIN             LUIS RODRIGO19910619MS           9444220170066600257                                      calle brazil s/numero sector de la redonda000000000000
D20170802  0181215127             RUBILAR            ZAMORANO               LUIS DAVID19920708MS           9594232940000100031                                           PASAJE AUGUSTO SALAS 6972 VILLA LOBOS000000000000
D20170802  0115046128              GARCIA            CARVAJAL                   ROXANA19690831FC           9447604770000100006                                             AVENIDA CONCHA Y TORO. PUENTE ALTYO000000000000
D20170802  0201479185            Gonzalez              Ulloa                    Camila19991020                      0000000000                                                                                000000000000
D20170802  0233298204              garcia               perez                cristobal20100521                      0000000000                                                                                000000000000
D20170802  0128475273              garcia            orellana                    oscar19751101                      0000000000                                                                                000000000000
D20170802  0115046128              GARCIA            CARVAJAL                   ROXANA19690830                      0000000000                                                                                000000000000
T2017080223100028               
