C20170726000                                                                                                                                                                                                              
D20170725  0050594149            GONZALEZ              SIERRA             JUAN ENRIQUE19481112M 999977450           1    7                                      AV LA VENDIMIA 899 DP 31 A STA MARIA MANQUEHUE000000000.00
D20170725  005253240K              BENOHR             RUDLOFF              KAETHE INES19500215F 992997415           1    1                                                                                    000000000.00
X20170725  0053137067              FLORES           INOSTROZA              JULIO CESAR19500325M 226903629           1    11                                                                   ECHEÑIQUE 8972 A000000000.00
Z20170725  0054410360            CARDENAS               GOMEZ            RUBEN ROLANDO19481215M 0046183             43   295                                                            AVENIDA LOS HEROES 502000000000.00
D20170725  0058402990           BALBONTIN            GUERRERO        SILVIA DEL CARMEN19440925F 986280457           43   293                                                                     IMPERIAL 0690000000000.00
D20170725  0065377837                 VIO             AGUILAR          CARLOS PATRICIO19570114M 97014835            1    14                                                VICENTE VALDES 89 DEPTO 146 TORRE A000000000.00
D20170725  0065948400          BOUFFANAIS              BENTTO                   IVONNE19580404F 22619929            669  38                                           CAMINO SANTA RITA SN MAJADAS C PARCELA 1000000000.00
D20170725  0066137910            YUTRONIC           FERNANDEZ              TOMAS LYUBO19561214MC94003966            1    19                                                              GLADYS 1160 DEPTO 403000000000.00
D20170725  0066785351            CARDENAS               GOMEZ          RINA DEL CARMEN19550308F 652460702           43   295                                                            AVENIDA LOS HEROES 502000000000.00
D20170725  0069084265              FLORIT               ORTIZ                  VIOLETA19530813F 71263875            30   174                                                          32 Y MEDIO  ORIENTE 1985000000000.00
D20170725  006930544K              OSORIO             VERGARA           UBERLINDA ROSA19571012F 2281158             22   113                                                                   LOS COPIHUES 78000000000.00
D20170725  006937865K              ALBALA            CHAMUDES            DANIEL ADOLFO19620413M 24874259            1    8                                                  CAMINO EL HUINGANAL 3561 DEPTO A32000000000.00
D20170725  0072088751              DONOSO              HUERTA         PAULINA GETSABEL19681203F 27759490            1    10                                                                   LOS JAZMINES 881000000000.00
D20170725  0072606752           FERNANDEZ          FUENTEALBA                MARIA PIA19640409F 98875636            27   149                                                                   QUECHEREHUE 786000000000.00
D20170725  0073838037               MARIN            GUERRERO         HECTOR ALEJANDRO19550617MC998028220           1    14                                                          SANTA SOFIA DE LO CAÑA 24000000000.00
D20170725  0075899203                SAEZ             NAVARRO                     OMAR19580306M                     1    29                                                    AV LAGUNA SUR 8359 VLLA LA VIÑA000000000.00
D20170725  0076458766            ORELLANA          BUSTAMANTE            DAVID SEGUNDO19570321M 98173293            669  36                                                                     CASA REAL 4515000000000.00
D20170725  0077735674            ARAGONES              BASAUL                    SONIA19720204F 76165141            669  36                                                            AV JORGE ROSS OSSA 1091000000000.00
D20170725  0077766502               LOLAS              LLANOS         CLAUDIA PATRICIA19661203F 92350277            1    9                                                                  LIBIA 55 DEPTO 405000000000.00
D20170725  0078197803                DIAZ            SCHEMMEL          CARLOS LEONARDO19571224M 994428332           30   174                                                           32 Y MEDIO ORIENTE 1985000000000.00
D20170725  0079109215              TORRES               AYALA         PATRICIO ANTONIO19570612M 93457532            30   174                                                                        6 SUR 2005000000000.00
D20170725  0079485322             MORALES                OGAZ            VICTOR MANUEL19610615M 90028296            188  132                            JESUS DE NAZARET 2272 VILLA LOS BOSQUES DE SANTA CLARA000000000.00
D20170725  0080101279            GALLARDO             VERGARA              EDITH JANET19570517FS90028296            188  132                            JESUS DE NAZARET 2272 VILLA LOS BOSQUES DE SANTA CLARA000000000.00
D20170725  008014024K             HIDALGO                VEGA         ALEJANDRO MANUEL19580807M                     9    56                                                MOISES GONZALEZ 1613 VILLA FERRONOR000000000.00
D20170725  0080632797             FOLLERT              GLAVES         JACQUELINE JOYCE19641004F 79697614            1    9                                               AVDA CRISTOBAL COLON 4647 DEPTO 704 A000000000.00
D20170725  0081162115              MORENO            VALLEJOS           INES JACQUELYN19600714F 98173293            669  36                                                                     CASA REAL 4515000000000.00
D20170725  0081273278            AGUILERA             ACEVEDO           MIRTA VERONICA19611031F                                                                                                               000000000.00
D20170725  0081355320           ASTUDILLO             HERRERA      PATRICIA DEL CARMEN19590508F 998269286           29   165                                                               PIRINEOS II CASA 66000000000.00
D20170725  0081530394            GONZALEZ             ALVAREZ                   PAMELA19621010F                     88   80                                                 LOS GERANIOS 1131 VILLA LA FLORIDA000000000.00
D20170725  0082183558           HERNANDEZ             PAREDES              JORGE FELIX19600707MS2299901             51   327                                                                   JORGE MONTT 710000000000.00
D20170725  0082629157             MORALES            GONZALEZ              MARIA ELENA19600106FA42785047            6    48                                             PASAJE OBSIDIANA 955 VILLA ESMERALDA 4000000000.00
D20170725  0083162341            SAAVEDRA              COPIER           LUIS CRISTOBAL19610827M 997336494           1    26                                                                  ARTURO GODOY 1961000000000.00
D20170725  0083553553               YANEZ              CHAVEZ           SERGIO ANTONIO19590507M 2573738             188  148                                                                 CARLOS FRESNO 138000000000.00
D20170725  0083768347             BARRAZA               ORTIZ            LUIS FERNANDO19680107M                     23   118                                                                 MANUEL NAVARRO 40000000000.00
D20170725  0084096555          VALENZUELA             NAVARRO           MIGUEL GERARDO19690611MS                    6    336                                                                 PASAJE QUILLAY 12000000000.00
D20170725  008669977K               PEREZ            PALLARES                FRANCISCA19760406                      1    6                                                                DR TORRES BOOWEN 829000000000.00
D20170725  0087426750                DIAZ                SASS                 LEONARDO19600618MC61572934            23   118                                                      LAMINARIA 440 JARDIN DEL MAR000000000.00
D20170725  0087605272                CRUZ               LOPEZ        RICHARD SEBASTIAN19600805M 2235403             30   174                                                       13 NORTE 1664 VILLA PUELCHE000000000.00
D20170725  0087621839          BUSTAMANTE            SALDIVIA             RAUL ALBERTO19600522M 97681068            51   327                                                                   21 DE MAYO 1531000000000.00
D20170725  0088990986          FUENZALIDA               LOPEZ        CHRISTIAN RICARDO19611016M 79697614            1    9                                               AVDA CRISTOBAL COLON 4647 DEPTO 704 A000000000.00
D20170725  0089902568              AILLON             INZUNZA                FATIMA DE19610104F                     35   227                              SAN MARTIN PONIENTE 42 DEPTO 302 EDIFICIO DOÑA PAULA000000000.00
D20170725  0092574512              BALTER             DIAMAND              ADRIANA ADA19570204F 0222738836          1    11                                                                   ECHEÑIQUE 8972 A000000000.00
D20170725  0093857577              ZARATE              ZUNIGA          INES DEL CARMEN19610304F                     188  136                                             ARANJUEZ ORIENTE 444 VALLE LO CAMPINO000000000.00
D20170725  009579789K           SEPULVEDA            ESCOBEDO          PATRICIA HAYDEE19640106FD25869587            1    15                                                                AVENIDA JAIDER 5981000000000.00
D20170725  0097481121             BOCHARD             ACEVEDO               LUIS HENRY19650901M 22815166            1    13                                                        SENDERO JARDIN ORIENTE 2727000000000.00
D20170725  0097524009              ZAPATA              OYARZO            VILMA EUGENIA19641122F 61572934            23   118                                                      LAMINARIA 440 JARDIN DEL MAR000000000.00
D20170725  0098051902             MENESES               MUNOZ          ROBERTO RICARDO19630722MC28269997            669  36                                                                  LOS CLARINES 3307000000000.00
D20170725  0100288761              CASTRO             VERDUGO         SILVANA GUACOLDA19611209F 93737123            30   174                                                      26 SUR 1 PONIENTE B CASA 979000000000.00
D20170725  010170324K               MEDEL             BECERRA        CHRISTIAN CLAUDIO19671219M 94369482            1    26                                                       PASAJE MANUEL RODRIGUEZ 2147000000000.00
D20170725  0103652650             BARRERA               ROJAS                   NELSON19740412M 87687058            1    13                      LAS AZALEAS 8100 DEPTO 8267 COND LAS MALVAS QUEBRADA DE MACUL000000000.00
D20170725  0104374115                RIOS            ESPINOZA                  DENISSE19660206F 98420028            31   187                                                               CALLE DIECIOCHO 830000000000.00
D20170725  0105125992               SUAZO           RODRIGUEZ                    JANET19690424F 22232081            1    7                                                     ARMANDO JARAMILLO 1206 DEPTO 82000000000.00
D20170725  0105176228          SAN MARTIN             ALARCON        RODRIGO ALEJANDRO19700325MS98718052            1    13                          AVDA QUEBRADA DE MACUL 8600 CASA 50 CONDOMINIO LAS FLORES000000000.00
D20170725  0106574901              IBANEZ               VIDAL                GUILLERMO19661203M 998420028           31   187                                                                     DIECIOCHO 830000000000.00
D20170725  0106781974               VILLA              MONTES             LUIS EDUARDO19671013M                     14   73                                                   SALITRERA PAPOSO 1748 EL PALOMAR000000000.00
D20170725  0106889066            ESPINOZA               MU¬OZ            KAREN TATIANA19761029F 26885917            1    10                                                  JUAN ENRIQUE CONCHA 210 DEPTO 210000000000.00
D20170725  0106961042              CASTRO            ATABALES            VICTOR MANUEL19771218  00984265            12   67                                                                       ADAMSON 3286000000000.00
D20170725  0107760644          VALENZUELA             CORNEJO               ALEX GUIDO19660709MS88072366            669  36                                       PASAJE VAN GOCH 1979 VILLA CONJUNTO LLAVERIA000000000.00
D20170725  0107920447               ROJAS            LETELIER          VALERIA BEATRIZ19670122FS2235403             30   174                                                       13 NORTE 1664 VILLA PUELCHE000000000.00
D20170725  0108135190           MADARIAGA            SAAVEDRA            ROSA  CECILIA19720526F 66665544            669  36                           PASAJE TORRE NUEVA NORTE 3249 VILLA LAS BRISAS DEL MAIPO000000000.00
D20170725  0108189800              VALDES               BARRA         CRISTIAN ENRIQUE19700203M 95397618            666  254                                                              JAVIERA CARRERA 1470000000000.00
D20170725  010822231K             LAKOVIC               GOMEZ           LUIGGI MARCELO19720407MS92802898            12   67                                                                   HOMERO AVILA 950000000000.00
D20170725  0108410191          ANTILLANCA               PALMA            GERARDO ISAAC19661221M 54144501            1    32                                                          PASAJE GREGORIO SEXTO 265000000000.00
D20170725  0109201723               ORTIZ            ESPINOZA            JAIME ENRIQUE19720803M 26515080            1    10                                                  ALCALDE MONCKEBERG 1351 DEPTO 467000000000.00
D20170725  0109546488            SANDOVAL             QUEZADA       CLAUDIA DEL CARMEN19710506F 50929341            666  257                                                                LOS EUCALIPTUS 309000000000.00
D20170725  0109956899                AEDO             SARAVIA               PAZ ANDREA19741024FC76007567            1    24                                                            JOSE ABELARDO NUNEZ 528000000000.00
D20170725  0111671044            GONZALEZ             CORDERO                  RODOLFO19670503M 2422906             23   118                                                  4 NORTE 1330 DIRECCION COMERCIAL000000000.00
D20170725  0114415022             RETAMAL             MORALES               JORGE IVAN19691001M 90400865            31   183                                                         LOTE 14 EX FUNDO SAN LUIS000000000.00
D20170725  011629267K               AVILA             CORNEJO         OSVALDO HUMBERTO19701005M 28807696            1    14                                                             PASAJE LOS ROBLES 8460000000000.00
D20170725  011717669K              TORRES             AGUILAR            ORITIA YOANNA19710206FC2533369             44   301                                                            GALVARINO RIVEROS 1688000000000.00
D20170725  011760960K            GUERRERO             PASTENE            ARIEL ANTONIO19710806MC954088999           12   67                                                              OFICINA SOLFERINO 243000000000.00
D20170725  0118335945               SILVA               COURT           MARIA MACARENA19681010F 94343894            24   130                                                       HUERTOS DE CHILE PARCELA 63000000000.00
D20170725  0118719948              PULGAR               SALAS           DANAE ANGELICA19710117FC93329707            1    20                                                                   ZURICH NORTE 503000000000.00
D20170725  011938981K             HONORES              FLORES                   HERNAN19720105M 89562177            17   86                                   ANA MORAL CUESTA 1603 DEPTO 1603 VILLA EL PORTAL000000000.00
D20170725  0119950864             GALARCE           GUTIERREZ           ERASMO ERNESTO19720723M 83423291            27   149                                                   DESOLACION 982 GABRIELA MISTRAL000000000.00
D20170725  0122336042             CARRENO            GONZALEZ                   GASTON19720118M                     1    6                                                                         CONDELL 535000000000.00
D20170725  0122681661           PILCHILEN           GUTIERREZ                   BLANCA19720306F                     666  254                                                                     PETRARCA 1610000000000.00
D20170725  0124893186             HERRERA            ESPINOZA             MARIA LORETO19721219F 28807696            1    14                                                             PASAJE LOS ROBLES 8460000000000.00
D20170725  0124921163              MESINA              LLANOS          ROBERTO ANTONIO19730424M                     1    2                                                                      ECHEVERRIA 964000000000.00
D20170725  0126310250               PAVEZ                DIAZ           MARCELO  MARIO19740201M 95232229            1    26                                                       PJE SAFO 2832 VILLA PORTALES000000000.00
D20170725  0126415869              CORTEZ               ROJAS       CAROLINA ALEJANDRA19740910F 975197261           1    1                                                                                    000000000.00
D20170725  0127140170          MELILLANCA                VERA             PEDRO ELISEO19740625M 90871460            89   283                                                     FUNDO SANTA ROSA SN RIO BUENO000000000.00
D20170725  0128321209             MIRANDA            CASTILLO           CLAUDIA ANDREA19741217F 87687058            1    13                      LAS AZALEAS 8100 DEPTO 8267 COND LAS MALVAS QUEBRADA DE MACUL000000000.00
D20170725  012845084K               ROSSI              ZARATE            RENZO RADIMIR19750204M 77952624            23   117                                                            VICTORIA 2878 DEPTO 31000000000.00
D20170725  0129585293            ARELLANO              LASTRA        CECILIA VALENTINA19761001F 95927974            37   243                                                          PUREN 650 650 DEPTO B 43000000000.00
D20170725  0130029833               NUNEZ              BLANCO           CARLOS ALBERTO19760103M 975197261           1    10                                                          ESPRONCEDA 400 DPTO 803 B000000000.00
D20170725  0130402968             OBREGON             GAJARDO           ROSA MARIA PAZ19751023F 84599127            7    52                                             GUILLERMO SANCHEZ 660 DEPTO 15 TORRE B000000000.00
D20170725  0130428827             BORQUEZ           GUTIERREZ         CRISTIAN MARCELO19751208MS29672961            1    32                                                           PSJE ALTO DEL CARMEN 811000000000.00
D20170725  0130757626                VERA            ESPINOZA         MANUEL ALEJANDRO19760913MS22817208            1    6                                                                 LAS HORTENSIAS 2441000000000.00
D20170725  0130926339               MUNOZ              ARENAS            MARCO ANTONIO19760722M 73777295            1    26                                            PASAJE LAS LORNAS 485 VILLA LOS ROSALES000000000.00
D20170725  0132067252              AGURTO                DIAZ       BERNARDITA CECILIA19770511FS62137489            1    26                                                                    LA GALAXIA 1580000000000.00
D20170725  0132191115              GUERRA               AMADO          MARISOL ARIADNE19770528FS92802898            12   67                                                                   HOMERO AVILA 950000000000.00
D20170725  0132440514              ZUNIGA                SOTO     CAROLINA DEL ROSARIO19770609F 63226240            1    3                                                     AVDA SAN FERNANDO 1477 DEPTO 12000000000.00
D20170725  013281905K               MUNOZ           HERNANDEZ             CESAR HERNAN19770318MC56995964809         309  39                                                    miguel de la barra 1747 casa 19000000000.00
D20170725  0134499583               ARAYA               REYES              INES ALICIA19771217F 26996020            1    4                                       CAMINO DEL ROBLE 1177 CASA 4 COND LOS GUINDOS000000000.00
D20170725  0134637102              ORTEGA                TORO           RODRIGO ANDRES19780118MS98097333            1    1                                               SAN IGNACIO DE LO YOLA 1372 DEPTO 804000000000.00
D20170725  0134939095                DIAZ               MORAN        CHRISTIAN OSVALDO19780318M 63082447            1    26                                                              PASAJE LEON XIII 2540000000000.00
D20170725  0135089796               LOPEZ             MORALES        JESSICA ELIZABETH19770512F                     23   118              CALLE CASTILLA 121 DEPTO 208 EDIFICIO JARDIN DEL VALLE GOMEZ CARREÑO000000000.00
D20170725  0135863297             HERRERA             ALARCON                LUIS ADAN19790805MS2201298             39   273                                                            JOSE HUAQUIN DIPP 4062000000000.00
D20170725  0136410318              GARCES             NAVARRO                   LORENA19771114F                                                                                                               000000000.00
D20170725  0136455273            SAAVEDRA             AHUMADA             ALVARO DAVID19791017MC84570605            20   100                                          PSJE RIO CRUSES 377 POBLACION BELLAVISTA000000000.00
D20170725  0136834614               MUNOZ              CASTRO           MAURICIO DAVID19790916                      669  36                                                              PASAJE LAGO BAYO 1069000000000.00
D20170725  0137153831            OLIVEROS          SAN MARTIN             JOSE ANTONIO19790921M 2323299             31   190                                           PJE SERGIO IBAÑES 1708 VILLA DON MATIAS000000000.00
D20170725  0138050661            CASTILLO          FUENTEALBA             LUIS ANTONIO19800208M 88397627            37   243                                                                        BAVIERA 62000000000.00
D20170725  0138132862              SPIESS            FIGUEROA            ANDREA LORETO19800509F 90796729            43   292                                                         ANTONIO VARAS 203 DEPTO 1000000000.00
D20170725  0138660192            GONZALEZ            ALBORNOZ           HECTOR ALFREDO19800517M 2762383             9    56                                          PSJ VIRGINIA 2927 DEPTO A POB LA VICTORIA000000000.00
D20170725  0138964728             BARRIGA             TORTOZA          KATHERINE ELENA19800216F 74963701            1    1                                                                 MONEDA 970 DEPTO 14000000000.00
D20170725  0139125002               NIETO              GUZMAN         TAMARA ALEJANDRA19800212F 28231816            669  36                                                              PASAJE LAGO BAYO 1069000000000.00
D20170725  0139325915              ORTEGA              MILLAN           EFRAIN GONZALO19801026M 23201026            6    336                                                                  SANTA MARIA 1657000000000.00
D20170725  0139424298                DIAZ              CONCHA          DENIS FRANCISCO19801016M 29801773            1    10                                            ANGEL CHUCHAGA SANTA MARIA 55 DEPTO 908000000000.00
D20170725  0139964071            ESCUDERO         VINCIGUERRA           ROMINA VALESKA19811127F 985277333           12   67                                                           VALLE DEL ATARDECER 3706000000000.00
D20170725  0142037882            ELIZONDO               CERDA        VANESSA VALENTINA19811021F                     578  194                                                 MOISES POBLETE 1675 BARRIO TOLEDO000000000.00
D20170725  0142081938                 DEL                PINO             SUAREZ MARIA19811020F 97512184            1    9                                                     SANTA MAGDALENA SOFIA BARAT 125000000000.00
D20170725  0142941848               ARIAS              VARGAS                    OSCAR19750801M 65955814            43   293                                                              CALLE SANTA ROSA 560000000000.00
D20170725  0142964147           CAMPUSANO                URIA            JOCELYN KARIN19750106F                     1    10                                                       ANTONIO VARAS 2200 DEPTO 312000000000.00
D20170725  015035708K             JIMENEZ               ROJAS          CAMILA PATRICIA19841128F                     1    9                                                  JUAN ESTEBAN MONTERO 5534 DEPTO 32000000000.00
D20170725  015060351K         COVARRUBIAS             VERGARA           NATALIA ISABEL19840131F                     20   101                                                                    LOS OLIVOS 310000000000.00
D20170725  0151139728          SANSARRICQ             NEGRETE          MARIANA CECILIA19781111F 22817208            1    6                                                                 LAS HORTENSIAS 2441000000000.00
D20170725  0152586361          DELGADILLO               ACUNA           LESLIE TATIANA19820709F 2735000             666  254                                                                LOS AGUSTINOS 1751000000000.00
D20170725  0153269548          VALENZUELA               LAGOS           NATALIA ANDREA19791023F 983704616           1    24                                                            EMBAJADOR QUINTANA 4879000000000.00
D20170725  0153348863             DELAHAY               BELLO        DAYANA DEL CARMEN19840618F                     1    26                                                CALLE OLMUE 3134 VILLA LOS CASTAÑOS000000000.00
D20170725  015349732K              MAIANS                MENA                 CAROLINA19810602F 26773491            1    24                                                            EMBAJADOR QUINTANA 4879000000000.00
D20170725  0154375422            MONARDES                CRUZNIVIA MICHELLE JACQUELINE19820401F                     309  39                                                                    SAN ALFONSO 741000000000.00
D20170725  0156993204             RAMIREZ               JARPA                ANA MARIA19830515F 95461205            578  195                                                               ARTURO PRAT SUR 207000000000.00
D20170725  0157560247               OPAZO             HERRERA           ANDRES ANTONIO19840103M 81572514            1    4                                                          GUANACO NORTE 2000 CASA 98000000000.00
D20170725  0157839276           CONTRERAS              PRIETO             PABLO ANDRES19840623M 984189808           1    6                                                             SEMINARIO 175 DEPTO 216000000000.00
D20170725  0158556499          BERNASCONI          GENSKOWSKY         VINCENZO STEFANO19841108M 22219388            1    1                                                              MONJITAS 360 DEPTO 226000000000.00
D20170725  015941888K               VARAS                RUIZ          NATHALY VALESKA19841218F                     1    26                                                      PRESIDENTE FREI MONTALVA 2595000000000.00
D20170725  015966273K   CRISTIAN PATRICIO            CALDERON                  MORALES19851110F 23431180            1    10                                                                 HERNAN CORTES 2470000000000.00
D20170725  015996275K               GARAY           MALDONADO         ROSANA MARGARITA19851110  23431180            1    10                                                                 HERNAN CORTES 2470000000000.00
D20170725  0160152052             PEREIRA             WETTLIN          LISSETTE ANDREA19850207F                     1    1                                                               CARMEN 557 DEPTO 1101000000000.00
D20170725  0160469218             SCHULZE          BARRIENTOS          FERNANDO DANIEL19850108M                     43   292                                                      CALLE QUILLOTA 175 DEPTO 711000000000.00
D20170725  0160511346                DIAZ               GAETE            IVANIA ANDREA19850114F 97932850            12   67                                                      CONDELL 3001 ESQUINA RIQUELME000000000.00
D20170725  0161205273           HENRIQUEZ              FORMAS            KARINA ANDREA19850305                      6    336                                                                     EL MA?IO 1040000000000.00
D20170725  0161272159            ZAMORANO             MORALES       VALESKA BERNARDITA19851008F 82517930            1    27                                                                      SANTA FE 1615000000000.00
D20170725  0161444596             NANJARI             FUENTES           SOFIA CAROLINA19850122F 57836789            1    4                                                           LOS DATILES 6015 DEPTO 37000000000.00
D20170725  0161599336            TRIVINOS             SANTANA           VICTOR  MANUEL19850727M 42283547            39   273                                                    PUERTO AYSEN 312 VILLA AUSTRAL000000000.00
D20170725  0161704059                POZO             VIVALLO           CYNTHIA LESLIE19850514F 83037581            1    21                                           PASAJE SEVILLA 12140 VILLA 12 DE OCTUBRE000000000.00
D20170725  0161923850                JARA               ROJAS        SILVANA ELIZABETH19860123F                     1    16                                                             PSJE LAS VIOLETAS 6831000000000.00
D20170725  0162086588            ORELLANA              WALDEN             RENAN FELIPE19860319M 44399193            1    19                                                     FERNANDO LASCANO 1249 DEPTO 44000000000.00
D20170725  0162477854             MORALES               NUNEZJUANA CECILIA DEL ROSARIO19850902F                     1    18                                                                      PASAJE I 2177000000000.00
D20170725  0162535013              ACOSTA            TRUJILLO              JORGE RAMON19860603M 89343168            188  132                                                                PUNTA DE CORTES 18000000000.00
D20170725  016267630K           SEPULVEDA             VERGARA            MARIA PAULINA19860108F 85489422            669  36                                                              AVENIDA EL PERAL 7330000000000.00
D20170725  0163067218             SERRANO              COSSIO            SERGIO HERNAN19861005M 85478170            20   100                                                                      SAN LUCAS 29000000000.00
D20170725  0163360357            ORELLANA               VIDAL           DANIEL IGNACIO19860603M 92198176            29   165                                                                           PEÑA 70000000000.00
D20170725  0163548550             VEZZOSI              CASTRO         JACQUELINE ERICA19860214F 68193616            309  40                                                             SANTIAGO SANDOVAL 1624000000000.00
D20170725  0163860708             QUIROGA              MEDINA             ANALIA ESTER19861130F                     666  262                                                                    COLO COLO 1898000000000.00
D20170725  0164018652            GUERRERO             PERALTA                PAZ KAREN19870107F                     23   118                                                                   ISLA PISTON 150000000000.00
D20170725  0164048799             PEDRERO          FUENTEALBA          ROXANA CAROLINA19861007F                     34   214                                                                  VIÑA DEL MAR 284000000000.00
D20170725  0164172880               NUNEZ             CARRERA          LUCIANO ESTEBAN19861023M                     309  39                                                                   EL ALARICE 14008000000000.00
D20170725  0164215504               AYALA              ZAMORA        PATRICIA MARLENNE19860905F                     1    12                                            CAMINO AGRICOLA 1710 DEPTO 2103 TORRE B000000000.00
D20170725  0164497887               YANEZ             CARMONA          NATALIA IGNACIA19860514F                     1    26                                        AV EL DESCANSO 1736 DEPTO 302 EDIFICIO CITY000000000.00
D20170725  0164714675            MARTINIC             ARRIETA             JORGE ANDRES19860916M 984609233           1    9                                                   PADRE HURTADO  SUR 1321 DEPTO 173000000000.00
D20170725  0164848566            MESSENET                AEDO          ROBERTO EDUARDO19870723M                     1    31                                           AV PRESIDENTE EDUARDO FREI MONTALVA 3092000000000.00
D20170725  016489911K               YANEZ           NAHUELPAN         DANIEL ALEJANDRO19860913M 99370387            35   228                                                 VOLCAN HORNOPIREN 275 MAR HERMOSO000000000.00
D20170725  0165503066           CONTRERAS            UTILLANO           ANDREA JAVIERA19870122F                     20   100                                CALLE BELLAVISTA 33 DEPTO 209 CONDOMINIO LA VIÑITA000000000.00
D20170725  0165844327              FARIAS              OVANDO         ROMINA ALEJANDRA19870629FS                    40   285                                                                   PARINACOTA 2179000000000.00
D20170725  0166329108            SANDOVAL              LLANOS            GONZALO ALEXI19870701M 2711243             37   243                                                           PEDRO AGUIRRE CERDA 231000000000.00
D20170725  0166551323           MALDONADO           RODRIGUEZ            INTI SALVADOR19850921M 83826516            1    1                                                            SANTA ROSA 634 DEPTO 808000000000.00
D20170725  0166573572              MEDINA             QUEZADA             IGNACIO JOSE19870401M 977959458           34   214                                      LAS CRUCES 301 CONDOMINIO LOS BOLDOS CASA 34000000000.00
D20170725  0166589363             LINEROS            GONZALEZ             RONALD EDWIN19870619M 85489422            669  36                                                              AVENIDA EL PERAL 7330000000000.00
D20170725  0166591392           BETANCOUR              IGUALT                 RAIMUNDO19870704M 77146407            1    6                                                        LAS ORTENCIAS 2836 DEPTO 501000000000.00
D20170725  0166750644             MIRANDA          VALENZUELA          GRACE ALEJANDRA19871002FS84257524            34   214                                                       COLO COLO 535 E DEPTO 304 1000000000.00
D20170725  0166773768             FUENTES           BENAVIDES            DANIEL MOISES19870806M                     23   117                                                                AVENIDA COLON 2493000000000.00
D20170725  0166842204             CARCAMO              GARCIA            JAVIER ANDRES19870706M                     7    52                                       KILOMETRO 95 PARCELA 1 CASA 2 VALLE DE AZAPA000000000.00
D20170725  0166929199                SAEZ                MEZA           JOSE ALEJANDRO19870704M                     669  36                                          GABRIELA MISTRAL 1146 VILLA INDEPENDENCIA000000000.00
D20170725  0167192653              TORRES               SILVA           DANIELA ANDREA19880217F                     1    15                                                           AV VICUNA MACKENNNA 4927000000000.00
D20170725  0167215785                DIAZ             SANCHEZ    PABLO ALBERTO NICOLAS19870525MS                    43   292                                                        VOLCAN TACORA 1865 DEPTO 1000000000.00
D20170725  0167294936               PALMA                DIAZ            DAVID IGNACIO19870930M 991335987           1    6                                                                          HOLANDA 14000000000.00
D20170725  016737459K               TOBAR             BECERRA        DANIELA ALEJANDRA19871215F                     309  39                                                                     LOS PINOS 2608000000000.00
D20170725  0167407285             LABARCA             SALAZAR        ROMANE DEL CARMEN19870725F 93027905            1    14                                 NUESTRA SEÑORA DE LO VASQUEZ 9548 VILLA SANTA INES000000000.00
D20170725  0167524818           HERNANDEZ                VERA          CLAUDIA VANESSA19870731F                     23   123                                       PASAJE MICHIMALONGO 122 VILLA DON FRANCISCO000000000.00
D20170725  016771336K              RIVERA             RAMIREZ        PAULINA ALEJANDRA19880106F                     12   67                                                             OFICINA LASTENIA 11697000000000.00
D20170725  016804240K               CERPA             ANDRADE             RENE BASTIAN19980508M                     39   273                                                    PASAJE 1 154 VILLA ANGA CHICHA000000000.00
D20170725  0168862849             CABRERA            PALACIOS              ADOLFO LUIS19880213M 940241562           22   110                                                             PEDRO DE VALDIVIA 840000000000.00
D20170725  0168959508              zarate           rodriguez           madelin nicole19880401FS                    88   82                                                                   LAS AÑAÑUCAS 250000000000.00
D20170725  0169121869               PINTO             SALINAS          GIORDANO GILMAR19881014M                     1    26                                                                     BAILARINA 1077000000000.00
D20170725  016927343K                DIAZ             PIZARRO            PAMELA ANDREA19880729F                     9    56                                                       SOLO QUIERE POLIZA AL CORREO000000000.00
D20170725  0169366543           BUSCHMANN            MARDONES                 JOSEFINA19880414F                     1    6                                                                         TOLEDO 1960000000000.00
D20170725  0169526745               PINTO             CACERES           MARCELA NATALI19880801F 26380409            1    1                                                                          MONEDA 645000000000.00
D20170725  0169754292            MAURERIA               GOMEZ          DAYANA FERNANDA19880721F                     39   275                                                                   VICTOR JARA 650000000000.00
D20170725  0169878722                HARO           EHRENFELD            IVAN SALVADOR19880904M                     34   214                                                                 CALLE LIENTUR 356000000000.00
D20170725  0170399145              ROMERO             URRUTIA               MARIA JOSE19880909F                     30   174                  20 Y MEDIA NORTE A CON 11 Y MEDIO ORIENTE B 1966 LOMAS DE LIRCAY000000000.00
D20170725  0170406443               ROJAS           SEPULVEDA          CECILIA LISETTE19881106F                     30   174                                                 VEINTIDOS ORIENTE 19 NORTE A 3076000000000.00
D20170725  0170681185           ALBRECHTT              TOLEDO           ROXANA VALESKA19890325FS                    39   273                                                              ERNESTO RIQUELME 532000000000.00
D20170725  0171621011              VIDELA            ALLENDES           MANUEL ANTONIO19890613M 44194618            23   117                                                                 LA PLANCHADA 4440000000000.00
D20170725  0171900239              ORMENO              CONCHA        DOMENICA FERNANDA19890805F 973388588           1    10                                            ANGEL CRUCHAGA SANTA MARIA 55 DEPTO 908000000000.00
D20170725  0172035124                 SAN                JUAN        DIAZ VICTOR BRIAN19891230M                     35   227                        AV LAGUNA REDONDA 2027 DEPTO 1043 COND ALTO LAGUNA REDONDA000000000.00
D20170725  0172861059             ALEGRIA           HERNANDEZ       KATHERINNE SOLEDAD19891116F                     1    27                                                           VILLASANA 2039 DEPTO 19A000000000.00
D20170725  017293868K               MARTI               PINTO     FRANCISCO JAVIER ALF19890606M                     88   85                                            BERNARDO OHIGGINS SN PISCO ELQUI PUEBLO000000000.00
D20170725  0172975631             QUEZADA            CARDENAS         DANIELA FERNANDA19890705F 652460702           43   295                                                            AVENIDA LOS HEROES 502000000000.00
D20170725  0173401280               NUÑEZ              REVECO             CARLOS JESUS19900310MS                    1    3                                                                     ALGARROBAL 1921000000000.00
D20170725  0173429851              DAROCH                 ROA         NICOLE ALEXANDRA19890702FS                    668  33                                                CASA U2  CONDOMINIO EL ALGARROBAL 2000000000.00
D20170725  0173492251             VASQUEZ              LUENGO           CLAUDIO ANDRES19901008M                     35   227                                                          LAS HERAS 1664 DEPTO 706000000000.00
D20170725  0173727437               REYES            GONZALEZ          GENESIS MARIBEL19891030F                     1    28                                                    LAS SIEMPRE VIVAS 1033 DEPTO 13000000000.00
D20170725  0174122628           BENAVIDES             BASTIAS           MARCELA ESTHER19891007F                     27   154                                          PASAJE DIRECTOR SAMUEL DIAZ BENTACUR 616000000000.00
D20170725  0174347387               ROJAS           SANTANDER         ISABEL MONSERRAT19900427F                     1    24                                                               CONDE DEL MAULE 4364000000000.00
D20170725  0174650772               PAVEZ           RODRIGUEZ        MARCELO ALEJANDRO19901015MS                    669  36                                               EL ALARIFE 3315 VILLA PARQUE DEL SOL000000000.00
D20170725  0174903875             CABRERA            SAAVEDRA       KATHERINE FERNANDA19901123F                     669  36                                                                      PORVENIR 1448000000000.00
D20170725  0174958408               BRAVO          HORMAZABAL           CARLOS ANTONIO19900419M                     30   174                                                           13 12 SUR 3 ORIENTE 997000000000.00
D20170725  0174964181             VILCHES               AVACA          CATALINA ANDREA19900621F                     30   174                                                      10 NORTE 2318 VILLA COMERCIO000000000.00
D20170725  0175026843             RAMIREZ           SEPULVEDA   CAROLINA DE LOS ANGELE19900121F                     188  132                                                         FLORENCIA 39 POB URMENETA000000000.00
D20170725  0175165010                LARA              MEDINA         MAURICIO EDUARDO19900621M                     23   117                                     CAVANCHA BLOCK 13 DEPTO 501 QUINTA AMPLIACION000000000.00
D20170725  0175179526              PUELLE             AGUIRRE          ARIEL FRANCISCO19910113M 91022643            88   82                                   LUIS ESPEJO COLLAO 1432 POB NUEVA VISTA AL MAR 2000000000.00
D20170725  0175241213           ITURRIAGA           ITURRIAGA         FERNANDO ANTONIO19910526MC                    35   227                                                            SAN MARTIN 710 DEPTO B000000000.00
D20170725  0175350330               OPAZO            GUERRERO           SORAYA SOLANGE19741123F 53973202            88   82                                                       AV COSTANERA 5551 DEPTO 1102000000000.00
D20170725  0175975438              ARENAS              CAMPOS           RODRIGO ANDRES19900514M 26418875            1    24                                                                 ARTURO VICARI 3303000000000.00
D20170725  0175992928            CLAVERIA             STUARDO           NATALIA SUSANA19900816F 996999929           1    9                                                         CAPITAN CROSBIE 853    1401000000000.00
D20170725  017606692K             PAREDES               OJEDA         ALVARO SEBASTIAN19911031M 984158985           89   281                                                                    JOHN KENNEDY 7000000000.00
D20170725  0176081341              ALVEAR                RIOS              JOSE MIGUEL19900710M 96601717            1    14                                                                   LOS HUSARES 5855000000000.00
D20170725  0176290501          DALLASERRA              RENDIC                   NICOLE19900928F 77146407            1    6                                                        LAS ORTENCIAS 2836 DEPTO 501000000000.00
D20170725  0176512318            MARTINEZ               YARZA             JOSE ANTONIO19900903M                     1    6                                                               ALMIRANTE PASTENE 125000000000.00
D20170725  0176542616          VILLARROEL             PACHECO          NATALIA CECILIA19900620F 75748173            667  64                                                  ANIBAL PINTO 1325 DEPARTAMENTO 33000000000.00
D20170725  0176744316              PARADA              BACHUR              TOMAS PABLO19900211M                     1    9                                                    ALONSO DE CORDOVA 5870 DEPTO 316000000000.00
D20170725  0177051489               MUNOZ             HERRERA           NORMAN IGNACIO19900728M                     1    26                                                            AV MARCOS ECHENIQUE 589000000000.00
D20170725  0177248339            ORELLANA              TABILO         YANARA LICARAYEN19910504F                     12   67                                                               CLODOMIRO ROZAS 492A000000000.00
D20170725  0177664502               ROJAS              ROMERO      GUILLERMO ALEJANDRO19901006M 26380409            1    1                                                                          MONEDA 645000000000.00
D20170725  0177920916            GONZALEZ            FILLIPPI         FRANCISCO JAVIER19910313M 0                   23   117                                     PASAJE CORONEL ROLDAN CASA 7 CERRO CORDILLERA000000000.00
D20170725  0178387138            CASTELLI              AILLAL               GINO JORGE19910728M                     1    14                                                                   EL AMANECER 9779000000000.00
D20170725  017890406K              BARRIA            MATAMALA         GABRIELA SOLEDAD19911121F                     43   292                                                 ACHEN 1645 VILLA LANCULLEN INVICA000000000.00
D20170725  0178954040            GONZALEZ          BUSTAMANTE                   MANUEL19911114M 65857710            30   174                                                  16 12 PONIENTE 311 VILLA GALILEA000000000.00
D20170725  0179042827                JARA             RAMIREZ           MATIAS NICOLAS19910101M 0                   35   227                                    IGNACIO LOYOLA 1 SECTOR LOMAS DE SAN SEBASTIAN000000000.00
D20170725  017950491K           VELASQUEZ              FREDES                FRANCISCO19771116M 95087901            1    1                                                          SANTA ISABEL 489 DEPTO 504000000000.00
D20170725  0180594094              IBAÑEZ                RIOS                    RAYEN19920114F 722465140           31   187                                                                     DIECIOCHO 830000000000.00
D20170725  0180714456               ROJAS              MESINA              JAVIERA PIA19920106F 95679591            1    1                                                   AVENIDA RONDIZZONI 1856 DEPTO 13B000000000.00
D20170725  0180893326               OLMOS                MELO             PABLO ANDRES19920125M 59977539            1    32                                                                 PASAJE LONGAVI 289000000000.00
D20170725  0182042927             QUEZADA            CARDENAS              NATALIA PAZ19920520F 652460702           43   295                                                            AVENIDA LOS HEROES 502000000000.00
D20170725  0182275972               SILVA            GONZALEZ      ELIZABETH ESTEFANIA19930103F 99505309            30   174                                                      4 SUR B 32 Y 33 ORIENTE 3476000000000.00
D20170725  018228954K            GUERRERO            GONZALEZ         CARLOS ALEJANDRO19920401MS                    27   149                                                            AV BERNARDO OHIGIN 640000000000.00
D20170725  0182338265             BUGUENO               GODOY           DANIELA ANDREA19921031F                     12   67                                                             EL YODO 8235 DEPTO 125000000000.00
D20170725  0182948357              IBAÑEZ                RIOS                    AMAYA19930311F                                                                                                               000000000.00
D20170725  0183162934              BLANCO            SAAVEDRA        VALENTINA DANIELA19920912F                     88   80                                    AV BALMACEDA 5371 CASA 31 COND QUINTA MARGARITA000000000.00
D20170725  0183352342              DONOSO              LOAYZA         MAURICIO IGNACIO19930221M 2200205             27   149                                                     PERALILLO 2763 VILLA RUATALCA000000000.00
D20170725  0184620359               SOLIS               LOPEZ          GONZALO IGNACIO19930608M                     1    14                            AV LA FLORIDA 9650 DEPTO 111 COND ALTOS DE SANTA AMALIA000000000.00
D20170725  0188130283           MONSALVEZ           MONSALVEZ         DANIELA FERNANDA19930606F 44596125            35   228                                             SAN CARLOS 415 POBLACION SANTA LEONOR000000000.00
D20170725  0199513761             LAKOVIC              LLARAS           LUIGGI STEFANO19980825MS92802898            12   67                                                                   HOMERO AVILA 950000000000.00
D20170725  020099454K              VARGAS              ZUÑIGA        DANITZA VALENTINA19990101F 63226240            1    3                                                     AVDA SAN FERNANDO 1477 DEPTO 12000000000.00
D20170725  0204164649               MUÑOZ              GUERRA                VALENTINA20000912F 92802898            12   67                                                                   HOMERO AVILA 950000000000.00
D20170725  0215176800                RUIZ                   .             MYRIAM NOEMI19600802F 22478094            1    9                                                         MANQUEHUE NORTE 69 DEPTO 63000000000.00
D20170725  0217018072                JARA              FLORES            KEVIN OSWALDO19930406M                     1    9                                                                        SOCOMPA 9032000000000.00
D20170725  021782298K               ROJAS               SUAZO            LUCIANA SOFIA20050224F 22232081            1    7                                                     ARMANDO JARAMILLO 1206 DEPTO 82000000000.00
D20170725  0219317603              VALDES       PETIT-BREUILH                  IGNACIO20050914M 95397618            666  254                                                              JAVIERA CARRERA 1470000000000.00
D20170725  0223481663              ORTEGA           HENRIQUEZ                   RENATA20070308                                                                                                                000000000.00
D20170725  0226204180               ROJAS               ROSAS      CRISTOBAL ALEJANDRO20080108F 26380409            1    1                                                                          MONEDA 645000000000.00
D20170725  0226814728             MIRANDA              PULGAR           ANDRES IGNACIO20080329M 93329707            1    20                                                                   ZURICH NORTE 503000000000.00
D20170725  023111694K             LAKOVIC              GUERRA                    MILAN20090818M 92802898            12   67                                                                   HOMERO AVILA 950000000000.00
D20170725  0237979117              MOLLER            ARELLANO      NIKOLAS MAXIMILIANO20111110F 95927974            37   243                                                          PUREN 650 650 DEPTO B 43000000000.00
D20170725  0239223133             LAKOVIC              GUERRA                   DRAZEN20120402M 92802898            12   67                                                                   HOMERO AVILA 950000000000.00
D20170725  0240575876            BERMUDEZ              FRANCO             INGRID PAOLA19881207F                     1    9                                                          LA CAPITANIA 939 DEPTO 167000000000.00
D20170725  0242008391               MUNOZ               NIETO              MAXIMILIANO20120210                                                                                                                000000000.00
D20170725  0249691429               RAMOS              MONZUR          JOELA ALEJANDRA19910425F 953643957           1    6                                                  GALVARINO GALLARDO 1915  DEPTO 404000000000.00
D20170725  0252557563              MOLLER            ARELLANO            THOMAS JAVIER20160113M 95927974            37   243                                                          PUREN 650 650 DEPTO B 43000000000.00
D20170725  0253321563           RODRIGUEZ                CRUZ                     MILA20160323F 2235403             30   174                                                       13 NORTE 1664 VILLA PUELCHE000000000.00
D20170725  025605342K              CASTRO            ESCUDERO                FRANCISCA20161215F                                                                                                               000000000.00
D20170725  5017198205               MUÑOZ                                    FLORENCIA19010101F                                                                                                               000000000.00
D20170725  5017198213              MATONS                                     MACARENA19010101F                                                                                                               000000000.00
D20170725  501719823K            SAAVEDRA            AGUILERA          ARIEL CRISTOBAL19950117M                                                                                                               000000000.00
D20170725  5017198639             ORELANA              TABILO          FERNANDO ANDRES                                                                                                                        000000000.00
D20170725  5017198647               ACUÑA                PEÑA            RENE PATRICIO                                                                                                                        000000000.00
D20170725  5017198655              TABILO               SIGLA     JOSEFINA DEL ROSARIO                                                                                                                        000000000.00
D20170725  5017198663               MARTI             ARACENA         FRANSISCA LEONOR                                                                                                                        000000000.00
D20170725  5017198671               PINTO               PINTO          FABIOLA VIVIANA                                                                                                                        000000000.00
D20170725  501719868K             ARACENA              VARGAS               CAMILA PAZ                                                                                                                        000000000.00
D20170725  5017198698              ZUÑIGA              FARIAS        ALEJANDRO ANTONIO                                                                                                                        000000000.00
D20170725  5017198701                VERA            GONZALEZ             INES ANTONIA                                                                                                                        000000000.00
D20170725  501719871K              MESINA          VALENZUELA         NICOLAS  IGNACIO                                                                                                                        000000000.00
D20170725  5017198728              RIVERA             RAMIREZ         CRISTINA  NICOLE                                                                                                                        000000000.00
D20170725  5017198736           RODRIGUEZ             GARRIDO           ALICIA  LORENA                                                                                                                        000000000.00
D20170725  5017198744            RIQUELME           RODRIGUEZ           LORENZO ANDRES                                                                                                                        000000000.00
D20170725  5017198752           REBOLLEDO             ALVARES          PAMELA JOSSELIN                                                                                                                        000000000.00
D20170725  5017198760                LARA             ARAVENA         CAMILA ALEXANDRA                                                                                                                        000000000.00
D20170725  5017198779              LUENGO                MORA       PASCUALA MAGDALENA                                                                                                                        000000000.00
D20170725  5017198787             VASQUEZ           NAVARRETE        GUILLERMO ALBERTO                                                                                                                        000000000.00
D20170725  5017198795                MAZA             RETAMAL       CRISTIAN  PATRICIO                                                                                                                        000000000.00
D20170725  5017198809            MOSQUEDA             URRUTIA       MAURICIO  HENRIQUE                                                                                                                        000000000.00
D20170725  5017198817             FUENTES               AVILA        FRANCISCA IGNACIA                                                                                                                        000000000.00
D20170725  5017198825             BECERRA             MACHUCA           MIRIAM VIVIANA                                                                                                                        000000000.00
D20170725  5017198833               TOBAR             SANCHEZ              PEDRO PABLO                                                                                                                        000000000.00
D20170725  5017198841               CADIZ               LORCA            DIEGO GABRIEL                                                                                                                        000000000.00
D20170725  501719885K               MUÑOZ             HERRERA          BENJAMIN ANDRES                                                                                                                        000000000.00
D20170725  5017198868       PERALTA VARAS       PERALTA VARAS    GUILTA  PERALTA VARAS                                                                                                                        000000000.00
D20170725  5017198876               SILVA             PEDRERO         BENJAMIN ANTONIO                                                                                                                        000000000.00
D20170725  5017198884               SILVA             PEDRERO             BELEN ALICIA                                                                                                                        000000000.00
D20170725  5017198892               SILVA           FERNANDEZ      LUIS FELIPE EDUARDO                                                                                                                        000000000.00
D20170725  5017198906            SANDOVAL           GUTIERREZ         VALESKA ANGELICA                                                                                                                        000000000.00
D20170725  5017198914             QUIROGA              MEDINA           JUAN FRANCISCO                                                                                                                        000000000.00
D20170725  5017198922                SAEZ           SEPULVEDA          CATALINA ANDREA                                                                                                                        000000000.00
D20170725  5017198930               REYES           SEPULVEDA        NICOLE  DE LA PAZ                                                                                                                        000000000.00
D20170725  5017198949              BURGOS           SEPULVEDA                ROSA FLOR                                                                                                                        000000000.00
D20170725  5017198957                SAEZ              BURGOS           ALEJANDRO OMAR                                                                                                                        000000000.00
D20170725  5017198965              ZUÑIGA                SAEZ      CATALIBNA ELIZABETH                                                                                                                        000000000.00
D20170725  5017198973           BUSCHMANN            MARDONES            MARTIN ANDRES                                                                                                                        000000000.00
D20170725  5017198981           BUSCHMANN           DE SANTOS             MARTIN JORGE                                                                                                                        000000000.00
D20170725  501719899K              ZAMORA               DIBAR              ERIKA BERTA                                                                                                                        000000000.00
D20170725  5017199007             CEGREDO               PARRA           JOSE ALEXANDER                                                                                                                        000000000.00
D20170725  5017199015              MORENO             ARDILES           ALVARO  MATIAS                                                                                                                        000000000.00
D20170725  5017199023             CARMONA              GARCIA            ROSA  ANTONIA                                                                                                                        000000000.00
D20170725  5017199031                VEGA             CANALES                    JAIME                                                                                                                        000000000.00
D20170725  501719904K          HORMAZOBAL              RIVERA                  JULIA .                                                                                                                        000000000.00
D20170725  5017199058           SEPULVEDA               CERPA        IVONNE JACQUELINE                                                                                                                        000000000.00
D20170725  5017199066              ZUÑIGA           SEPULVEDA         BENJAMIN ANTONIO                                                                                                                        000000000.00
D20170725  5017199074              FARIAS              BUSTOS          EMILIO  IGNACIO                                                                                                                        000000000.00
D20170725  5017199082              OVANDO               SOLIS    JAQUELINE  DEL CARMEN                                                                                                                        000000000.00
D20170725  5017199090               ORTIZ              SOMMER           MATIAS  ANDRES                                                                                                                        000000000.00
D20170725  5017199104               ROJAS              MOLINA          PATRICIA AURORA                                                                                                                        000000000.00
D20170725  5017199112               ORTIZ             JIMENEZ                SILVESTRE                                                                                                                        000000000.00
D20170725  5017199120         COVARRUBIAS             VERGARA          FELIPE  ESTEBAN                                                                                                                        000000000.00
D20170725  5017199139          VALENZUELA             MARCIEL        NICOLAS ALEJANDRO                                                                                                                        000000000.00
D20170725  5017199147              BLANCO            VALDIVIA           HECTOR ALFONSO                                                                                                                        000000000.00
D20170725  5017199155               BELLO            RIQUELME          TERESA ANGELICA                                                                                                                        000000000.00
D20170725  5017199163            ESCALONA             DELAHAY         BENJAMIN ANTONIO                                                                                                                        000000000.00
D20170725  5017199171             VERGARA               BRAUN        ISIDORA MAGDALENA                                                                                                                        000000000.00
D20170725  501719918K           CONTRERAS            SUBIABRE          RODRIGO ALBERTO                                                                                                                        000000000.00
D20170725  5017199198             WETTLIN              ESPINA         LILIANA GEORGINA                                                                                                                        000000000.00
D20170725  5017199201            ALBORNOZ         VALDEBENITO        KATHERINE VALESKA                                                                                                                        000000000.00
D20170725  501719921K                JARA              FLORES          KAREN ESTEFANIA                                                                                                                        000000000.00
D20170725  5017199228           EHRENFELD              MOLINA        MONICA DEL CARMEN                                                                                                                        000000000.00
D20170725  5017199236               ROJAS           SEPULVEDA               JUAN  JOSE                                                                                                                        000000000.00
D20170725  5017199244           SEPULVEDA           SEPULVEDA   GLORIA DE LAS MERCEDES                                                                                                                        000000000.00
D20170725  5017199252          BENAVENTES               MUÑOZ        FRANCISCO  RAFAEL                                                                                                                        000000000.00
D20170725  5017199260              LUENGO            MANCILLA           JOSE  MAURICIO                                                                                                                        000000000.00
D20170725  5017199279              SAMBRA             ACEVEDO      NIDIA DE LAS CRUCES                                                                                                                        000000000.00
D20170725  5017199287             HIDALGO              SAMBRA          NIDIA MARGARITA                                                                                                                        000000000.00
D20170725  5017199295             HIDALGO              SAMBRA              ERICK ARIEL                                                                                                                        000000000.00
D20170725  5017199309           SANTANDER              REARTE         ERIKA DEL CARMEN                                                                                                                        000000000.00
D20170725  5017199317            GRISALES             GIRALDO             LEYDI JOHANA                                                                                                                        000000000.00
D20170725  5017199325             AGUIRRE             MORALES            DANTE  ALONSO                                                                                                                        000000000.00
D20170725  5017199333               SOLIS               LOPEZ           ARTURO EDUARDO                                                                                                                        000000000.00
D20170725  5017199341               SOLIS               REYES                   ARTURO                                                                                                                        000000000.00
D20170725  501719935K                DIAZ              MULLER           HERNAN GONZALO                                                                                                                        000000000.00
D20170725  5017199368             CARRERA              AILLON                JAVIERA 0                                                                                                                        000000000.00
D20170725  5017199376             MORALES                OGAZ            VICTOR MANUEL                                                                                                                        000000000.00
D20170725  5017199384             MORALES                OGAZ            VICTOR MANUEL                                                                                                                        000000000.00
D20170725  5017199392             BORQUEZ              LLANOS          MARTIN SANTIAGO                                                                                                                        000000000.00
D20170725  5017199406             BORQUEZ              LLANOS           IGNACIO ARTURO                                                                                                                        000000000.00
D20170725  5017199414              LLANOS                   .             SERIE ROXANA                                                                                                                        000000000.00
D20170725  5017199422           GUTIERREZ           GUTIERREZ  GUILLERMINA DEL ROSARIO                                                                                                                        000000000.00
D20170725  5017199430                CRUZ             COLLINS           RICARDO JAVIER                                                                                                                        000000000.00
D20170725  5017199449                CRUZ             COLLINS           RICARDO JAVIER                                                                                                                        000000000.00
D20170725  5017199457                CRUZ             COLLINS           RICARDO JAVIER                                                                                                                        000000000.00
D20170725  5017199465               REYES                PINO          MARTINA IGNACIA                                                                                                                        000000000.00
D20170725  5017199473                CAYE            DEL PINO       ISABELLA ESPERANZA                                                                                                                        000000000.00
D20170725  5017199481                CAYE            DEL PINO           CRESENTE KOLDO                                                                                                                        000000000.00
D20170725  501719949K             MORALES              TEMPIO            NELIDA PAMELA                                                                                                                        000000000.00
D20170725  5017199503           CONTRERAS           MADARIAGA               MILLARAY .                                                                                                                        000000000.00
D20170725  5017199511           CONTRERAS           MADARIAGA                 MARTIN .                                                                                                                        000000000.00
D20170725  501719952K             MOSALVE               PALMA                 VICTORIA                                                                                                                        000000000.00
D20170725  5017199538            GONZALEZ               ROMAN               CATALINA .                                                                                                                        000000000.00
D20170725  5017199562            GONZALEZ             CORDERO       LUZALBA DEL CARMEN                                                                                                                        000000000.00
D20170725  5017199570             RAMIREZ              AGUAYO         ISABEL MARGARITA                                                                                                                        000000000.00
D20170725  5017199589                JARA             RAMIREZ         SEBASTIAN ANDRES                                                                                                                        000000000.00
D20170725  5017199597              FRANCO               MUÑOZ              ESPERANSA .                                                                                                                        000000000.00
D20170725  5017199600            VERMUDEZ              FRANCO           ANGELA VIVIANA                                                                                                                        000000000.00
D20170725  5017199619                RUIZ             ROBLEDO          JESSICA  TERESA                                                                                                                        000000000.00
D20170725  5017199627                MOYA            ELISONDO            JOSE  ANTONIO                                                                                                                        000000000.00
D20170725  5017199635               SILVA                MERA          SANDRA NAYARETH                                                                                                                        000000000.00
D20170725  5017199643                NOVA              CHOQUE         ESPERANZA MIREYA                                                                                                                        000000000.00
D20170725  5017199651           ARRIAGADA               LOPEZ         DANIEL ALEJANDRO                                                                                                                        000000000.00
D20170725  501719966K           ARRIAGADA                JARA          MAITE ANTONELLA                                                                                                                        000000000.00
D20170725  5017199678                DIAZ           RODRIGUEZ           NATALIE MILENA                                                                                                                        000000000.00
D20170725  5017199686               PAVEZ              PULGAR          ORLANDO SEGUNDO                                                                                                                        000000000.00
D20170725  5017199694           RODRIGUEZ               RIFFO              LAURA  ROSA                                                                                                                        000000000.00
D20170725  5017199708               PAVEZ           RODRIGUEZ         VALENTINA  BELEN                                                                                                                        000000000.00
D20170725  5017199716               PAVEZ           RODRIGUEZ            ORLANDO ARIEL                                                                                                                        000000000.00
D20170725  5017199724                PINO              DUARTE        MARIANA ALEJANDRA                                                                                                                        000000000.00
D20170725  5017199732               GODOY           CAMPUSANO        CECILIA DEL CARME                                                                                                                        000000000.00
D20170725  5017199740            MARTINEZ          VALENZUELA        FRANCISCO  JAVIER                                                                                                                        000000000.00
D20170725  5017199759               YARZA               ZELIZ            NORA CAROLINA                                                                                                                        000000000.00
D20170725  5017199767            MARTINEZ               YARZA       JOAQUIN  FRANCISCO                                                                                                                        000000000.00
D20170725  5017199775               REYES            GONZALEZ               LUIS ARIEL                                                                                                                        000000000.00
D20170725  5017199783            MATAMALA           OLAVARRIA          YESENIA FABIOLA                                                                                                                        000000000.00
D20170725  5017199791           OLAVARRIA           GUTIERREZ          ELIZABETH MARIA                                                                                                                        000000000.00
D20170725  5017199805            MATAMALA           OLAVARRIA         RODRIGO  ESTEBAN                                                                                                                        000000000.00
D20170725  5017199813             ALVAREZ            CUBILLOS          ISRRAEL  FELIPE                                                                                                                        000000000.00
D20170725  5017199821              AILLAL            MARIQUEO            ROSA JOSEFINA                                                                                                                        000000000.00
D20170725  501719983K              GUERRA              SOLANO    NICOLE DE LOS ANGELES                                                                                                                        000000000.00
D20170725  5017199848              ESPINA            PICHILEN          PAOLA   IVANEZA                                                                                                                        000000000.00
D20170725  5017199856               PINTO             SALINAS               MARIA JOSE                                                                                                                        000000000.00
D20170725  5017199864             SALINAS              ZAMBRA        ROXANA DEL CARMEN                                                                                                                        000000000.00
D20170725  5017199872                DIAZ              BARRIA       PAULINA  ALEJANDRA                                                                                                                        000000000.00
D20170725  5017199880              BACHUR               BRAVO          ANDREA CRISTINA                                                                                                                        000000000.00
D20170725  5017199899              TORRES               FRIAS         HANIBAL PATRICIO                                                                                                                        000000000.00
D20170725  5017199902            YUTRONIC          VILLALOBOS                  BARBARA                                                                                                                        000000000.00
D20170725  5017199910              RIVERA            CASTILLO                    MARIA                                                                                                                        000000000.00
D20170725  5017199929              VAQUEZ              OSORIO                    CESAR                                                                                                                        000000000.00
D20170725  5017199937             VASQUEZ               CASAS                    MATEO                                                                                                                        000000000.00
D20170725  5017199945              GUERRA               AMADO                MARISOL .                                                                                                                        000000000.00
D20170725  5017199953             LAKOVIC              LLARAS           LUIGGI STEFANO                                                                                                                        000000000.00
D20170725  5017199961              GUERRA               AMADO                MARISOL .                                                                                                                        000000000.00
D20170725  501719997K             LAKOVIC              LLARAS           LUIGGI STEFANO                                                                                                                        000000000.00
D20170725  5017199988              GUERRA               AMADO                MARISOL .                                                                                                                        000000000.00
D20170725  5017199996             LAKOVIC              LLARAS           LUIGGI STEFANO                                                                                                                        000000000.00
D20170725  5017200005              GUERRA               AMADO                MARISOL .                                                                                                                        000000000.00
D20170725  5017200013             LAKOVIC              LLARAS           LUIGGI STEFANO                                                                                                                        000000000.00
D20170725  5017200021              GUERRA               AMADO                MARISOL .                                                                                                                        000000000.00
D20170725  501720003K             LAKOVIC              LLARAS           LUIGGI STEFANO                                                                                                                        000000000.00
D20170725  5017200048              GUERRA               AMADO                MARISOL .                                                                                                                        000000000.00
D20170725  5017200056             LAKOVIC              LLARAS           LUIGGI STEFANO                                                                                                                        000000000.00
D20170725  5017200064                RIOS            MARTINEZ          NADIA  ELULALIA                                                                                                                        000000000.00
D20170725  5017200072            CASTILLO                RIOS         IGNACIA  ANTONIA                                                                                                                        000000000.00
D20170725  5017200080            ESPINOZA             PICEROS      FILOMENA DEL CARMEN                                                                                                                        000000000.00
D20170725  5017200099          SANSARRICQ             NEGRETE          MARIANA CECILIA                                                                                                                        000000000.00
D20170725  5017200102            ESPINOZA             PICEROS      FILOMENA DEL CARMEN                                                                                                                        000000000.00
D20170725  5017200110          SANSARRICQ             NEGRETE          MARIANA CECILIA                                                                                                                        000000000.00
D20170725  5017200129             HERRERA            ESPINOZA            MARIA  LORETO                                                                                                                        000000000.00
D20170725  5017200137             HERRERA            ESPINOZA            MARIA  LORETO                                                                                                                        000000000.00
D20170725  5017200145           VELAZQUEZ              TORRES          NICOLE STEFANIA                                                                                                                        000000000.00
D20170725  5017200153          VELAZAQUEZ              TORRES                     LUIS                                                                                                                        000000000.00
D20170725  501720017K             ALVAREZ              DONOSO             EDUARDO RENE                                                                                                                        000000000.00
D20170725  5017200188          CHAZARRETA                   .              HECTOR JAIR                                                                                                                        000000000.00
D20170725  5017200196           MANRIQUEZ               VILLA           ODETTE PETRONA                                                                                                                        000000000.00
D20170725  501720020K           HERNANDEZ           MANRIQUEZ        MARCELA ALEJANDRA                                                                                                                        000000000.00
D20170725  5017200218              MESINA             ALVAREZ            MARIA  ISABEL                                                                                                                        000000000.00
D20170725  5017200226              ARENAS             BERRIOS         CARLOS GUILLERMO                                                                                                                        000000000.00
D20170725  5017200234              ZUÑIGA              CRESPO          XIMENA  CECILIA                                                                                                                        000000000.00
D20170725  5017200242             VIVALLO              ZUÑIGA           MYRIAM  ALICIA                                                                                                                        000000000.00
D20170725  5017200250              QUIROZ           RODRIGUEZ                ANA KARIN                                                                                                                        000000000.00
D20170725  5017200269               MOENA               GOMEZ         MONICA ALEJANDRA                                                                                                                        000000000.00
D20170725  5017200277            GASCOGNE           RODRIGUEZ        FRANCISCO ERNESTO                                                                                                                        000000000.00
D20170725  5017200285           HAVLICZEK               LOLAS                  VICENTE                                                                                                                        000000000.00
D20170725  5017200293           HAVLICZEK               LOLAS                  MARTINA                                                                                                                        000000000.00
D20170725  5017200307            ORELLANA              MORENO                   FRANCO                                                                                                                        000000000.00
D20170725  5017200315            ORELLANA              MORENO                    DIEGO                                                                                                                        000000000.00
D20170725  5017200323            ORELLANA              MORENO                   FRANCO                                                                                                                        000000000.00
D20170725  5017200331            ORELLANA              MORENO                    DIEGO                                                                                                                        000000000.00
D20170725  501720034K          SAN MARTIN             ALARCON       MARISOL DE LA CRUZ                                                                                                                        000000000.00
D20170725  5017200358             ALARCON              SEGURA         PATRICIA MARICEL                                                                                                                        000000000.00
D20170725  5017200366               ORTIZ             ALARCON               JAIME OMAR                                                                                                                        000000000.00
D20170725  5017200374               ORTIZ             ALARCON         MARTINA FERNANDA                                                                                                                        000000000.00
D20170725  5017200382               ORTIZ             ALARCON            DIEGO IGANCIO                                                                                                                        000000000.00
D20170725  5017200390                MELO             ALVAREZ            IVONNE AURORA                                                                                                                        000000000.00
D20170725  5017200404          BUSTAMANTE             MIRANDA                  DAVID A                                                                                                                        000000000.00
D20170725  5017200412             MIRANDA              PULGAR           ANDRES IGNACIO                                                                                                                        000000000.00
D20170725  5017200420              PULGAR               SALAS              ALDO GASTON                                                                                                                        000000000.00
D20170725  5017200439             MIRANDA              PULGAR           ANDRES IGNACIO                                                                                                                        000000000.00
D20170725  5017200447              PULGAR               SALAS              ALDO GASTON                                                                                                                        000000000.00
D20170725  5017200455             SERRANO              DUCLOS          BARBARA PAULINA                                                                                                                        000000000.00
D20170725  5017200463              FLORES            SAAVEDRA           IGNACIO ANDRES                                                                                                                        000000000.00
D20170725  5017200471         RIBADENEIRA              CORREA           CLAUDIO SERGIO                                                                                                                        000000000.00
D20170725  501720048K          MANRRIQUEZ             BARRIGA            TOMAS AGUSTIN                                                                                                                        000000000.00
D20170725  5017200498               PAVEZ               URETA          LAURA ESPERANZA                                                                                                                        000000000.00
D20170725  5017200501             CARMONA           ESPINDOLA         MARGARITA ISABEL                                                                                                                        000000000.00
D20170725  501720051K               GAETE              MALLEA                    ANA .                                                                                                                        000000000.00
D20170725  5017200536             MARCHAN              MURGAN          CARLA CONSTANZA                                                                                                                        000000000.00
D20170725  5017200544          HERMOSILLA             RAMIREZ                  GERARDO                                                                                                                        000000000.00
D20170725  5017200552               JAQUE              CORREA                  RODRIGO                                                                                                                        000000000.00
D20170725  5017200560             SANTANA              CERPES           MARIAN  MIRIAM                                                                                                                        000000000.00
D20170725  5017200579              LLANOS            GONZALEZ                ELIZABETH                                                                                                                        000000000.00
D20170725  5017200587               LAGOS            SANDOVAL                   JAVIER                                                                                                                        000000000.00
D20170725  5017200595              HUENAL            SANDOVAL                 CRISTINA                                                                                                                        000000000.00
D20170725  5017200609               COSIO           GUTIERREZ        EUGENIA MAGDALENA                                                                                                                        000000000.00
D20170725  5017200617               ROJAS           GUERREROS                    PAOLA                                                                                                                        000000000.00
D20170725  5017200625             HONORES               ROJAS                 CAROLAIN                                                                                                                        000000000.00
D20170725  5017200633                SOTO               ANGEL       PATRICIA ALEJANDRA                                                                                                                        000000000.00
D20170725  5017200641               ROSSI                TORO              LUCAS  ENZO                                                                                                                        000000000.00
